{"abi":[{"type":"constructor","inputs":[{"name":"usdcAddress","type":"address","internalType":"address"}],"stateMutability":"nonpayable"},{"type":"function","name":"DEFAULT_ADMIN_ROLE","inputs":[],"outputs":[{"name":"","type":"bytes32","internalType":"bytes32"}],"stateMutability":"view"},{"type":"function","name":"PAYOUT_ROLE","inputs":[],"outputs":[{"name":"","type":"bytes32","internalType":"bytes32"}],"stateMutability":"view"},{"type":"function","name":"USDC","inputs":[],"outputs":[{"name":"","type":"address","internalType":"contract IERC20"}],"stateMutability":"view"},{"type":"function","name":"addPayer","inputs":[{"name":"payer","type":"address","internalType":"address"}],"outputs":[],"stateMutability":"nonpayable"},{"type":"function","name":"allBountyIds","inputs":[{"name":"","type":"uint256","internalType":"uint256"}],"outputs":[{"name":"","type":"bytes32","internalType":"bytes32"}],"stateMutability":"view"},{"type":"function","name":"baseBountyAmount","inputs":[],"outputs":[{"name":"","type":"uint256","internalType":"uint256"}],"stateMutability":"view"},{"type":"function","name":"bounties","inputs":[{"name":"","type":"bytes32","internalType":"bytes32"}],"outputs":[{"name":"bountyId","type":"bytes32","internalType":"bytes32"},{"name":"protocolId","type":"bytes32","internalType":"bytes32"},{"name":"validationId","type":"bytes32","internalType":"bytes32"},{"name":"researcher","type":"address","internalType":"address"},{"name":"severity","type":"uint8","internalType":"enum BountyPool.Severity"},{"name":"amount","type":"uint256","internalType":"uint256"},{"name":"timestamp","type":"uint256","internalType":"uint256"},{"name":"paid","type":"bool","internalType":"bool"}],"stateMutability":"view"},{"type":"function","name":"calculateBountyAmount","inputs":[{"name":"severity","type":"uint8","internalType":"enum BountyPool.Severity"}],"outputs":[{"name":"","type":"uint256","internalType":"uint256"}],"stateMutability":"view"},{"type":"function","name":"depositBounty","inputs":[{"name":"protocolId","type":"bytes32","internalType":"bytes32"},{"name":"amount","type":"uint256","internalType":"uint256"}],"outputs":[],"stateMutability":"nonpayable"},{"type":"function","name":"emergencyWithdraw","inputs":[{"name":"protocolId","type":"bytes32","internalType":"bytes32"},{"name":"to","type":"address","internalType":"address"},{"name":"amount","type":"uint256","internalType":"uint256"}],"outputs":[],"stateMutability":"nonpayable"},{"type":"function","name":"getBounty","inputs":[{"name":"bountyId","type":"bytes32","internalType":"bytes32"}],"outputs":[{"name":"","type":"tuple","internalType":"struct BountyPool.Bounty","components":[{"name":"bountyId","type":"bytes32","internalType":"bytes32"},{"name":"protocolId","type":"bytes32","internalType":"bytes32"},{"name":"validationId","type":"bytes32","internalType":"bytes32"},{"name":"researcher","type":"address","internalType":"address"},{"name":"severity","type":"uint8","internalType":"enum BountyPool.Severity"},{"name":"amount","type":"uint256","internalType":"uint256"},{"name":"timestamp","type":"uint256","internalType":"uint256"},{"name":"paid","type":"bool","internalType":"bool"}]}],"stateMutability":"view"},{"type":"function","name":"getProtocolBalance","inputs":[{"name":"protocolId","type":"bytes32","internalType":"bytes32"}],"outputs":[{"name":"","type":"uint256","internalType":"uint256"}],"stateMutability":"view"},{"type":"function","name":"getProtocolBounties","inputs":[{"name":"protocolId","type":"bytes32","internalType":"bytes32"}],"outputs":[{"name":"","type":"tuple[]","internalType":"struct BountyPool.Bounty[]","components":[{"name":"bountyId","type":"bytes32","internalType":"bytes32"},{"name":"protocolId","type":"bytes32","internalType":"bytes32"},{"name":"validationId","type":"bytes32","internalType":"bytes32"},{"name":"researcher","type":"address","internalType":"address"},{"name":"severity","type":"uint8","internalType":"enum BountyPool.Severity"},{"name":"amount","type":"uint256","internalType":"uint256"},{"name":"timestamp","type":"uint256","internalType":"uint256"},{"name":"paid","type":"bool","internalType":"bool"}]}],"stateMutability":"view"},{"type":"function","name":"getResearcherBounties","inputs":[{"name":"researcher","type":"address","internalType":"address"}],"outputs":[{"name":"","type":"tuple[]","internalType":"struct BountyPool.Bounty[]","components":[{"name":"bountyId","type":"bytes32","internalType":"bytes32"},{"name":"protocolId","type":"bytes32","internalType":"bytes32"},{"name":"validationId","type":"bytes32","internalType":"bytes32"},{"name":"researcher","type":"address","internalType":"address"},{"name":"severity","type":"uint8","internalType":"enum BountyPool.Severity"},{"name":"amount","type":"uint256","internalType":"uint256"},{"name":"timestamp","type":"uint256","internalType":"uint256"},{"name":"paid","type":"bool","internalType":"bool"}]}],"stateMutability":"view"},{"type":"function","name":"getResearcherEarnings","inputs":[{"name":"researcher","type":"address","internalType":"address"}],"outputs":[{"name":"","type":"uint256","internalType":"uint256"}],"stateMutability":"view"},{"type":"function","name":"getRoleAdmin","inputs":[{"name":"role","type":"bytes32","internalType":"bytes32"}],"outputs":[{"name":"","type":"bytes32","internalType":"bytes32"}],"stateMutability":"view"},{"type":"function","name":"getTotalBountiesPaid","inputs":[{"name":"protocolId","type":"bytes32","internalType":"bytes32"}],"outputs":[{"name":"","type":"uint256","internalType":"uint256"}],"stateMutability":"view"},{"type":"function","name":"getTotalBountyCount","inputs":[],"outputs":[{"name":"","type":"uint256","internalType":"uint256"}],"stateMutability":"view"},{"type":"function","name":"grantRole","inputs":[{"name":"role","type":"bytes32","internalType":"bytes32"},{"name":"account","type":"address","internalType":"address"}],"outputs":[],"stateMutability":"nonpayable"},{"type":"function","name":"hasRole","inputs":[{"name":"role","type":"bytes32","internalType":"bytes32"},{"name":"account","type":"address","internalType":"address"}],"outputs":[{"name":"","type":"bool","internalType":"bool"}],"stateMutability":"view"},{"type":"function","name":"isPayer","inputs":[{"name":"account","type":"address","internalType":"address"}],"outputs":[{"name":"","type":"bool","internalType":"bool"}],"stateMutability":"view"},{"type":"function","name":"protocolBalances","inputs":[{"name":"","type":"bytes32","internalType":"bytes32"}],"outputs":[{"name":"","type":"uint256","internalType":"uint256"}],"stateMutability":"view"},{"type":"function","name":"releaseBounty","inputs":[{"name":"protocolId","type":"bytes32","internalType":"bytes32"},{"name":"validationId","type":"bytes32","internalType":"bytes32"},{"name":"researcher","type":"address","internalType":"address"},{"name":"severity","type":"uint8","internalType":"enum BountyPool.Severity"}],"outputs":[{"name":"bountyId","type":"bytes32","internalType":"bytes32"}],"stateMutability":"nonpayable"},{"type":"function","name":"removePayer","inputs":[{"name":"payer","type":"address","internalType":"address"}],"outputs":[],"stateMutability":"nonpayable"},{"type":"function","name":"renounceRole","inputs":[{"name":"role","type":"bytes32","internalType":"bytes32"},{"name":"callerConfirmation","type":"address","internalType":"address"}],"outputs":[],"stateMutability":"nonpayable"},{"type":"function","name":"revokeRole","inputs":[{"name":"role","type":"bytes32","internalType":"bytes32"},{"name":"account","type":"address","internalType":"address"}],"outputs":[],"stateMutability":"nonpayable"},{"type":"function","name":"severityMultipliers","inputs":[{"name":"","type":"uint8","internalType":"enum BountyPool.Severity"}],"outputs":[{"name":"","type":"uint256","internalType":"uint256"}],"stateMutability":"view"},{"type":"function","name":"supportsInterface","inputs":[{"name":"interfaceId","type":"bytes4","internalType":"bytes4"}],"outputs":[{"name":"","type":"bool","internalType":"bool"}],"stateMutability":"view"},{"type":"function","name":"updateBaseBountyAmount","inputs":[{"name":"newAmount","type":"uint256","internalType":"uint256"}],"outputs":[],"stateMutability":"nonpayable"},{"type":"function","name":"updateSeverityMultiplier","inputs":[{"name":"severity","type":"uint8","internalType":"enum BountyPool.Severity"},{"name":"newMultiplier","type":"uint256","internalType":"uint256"}],"outputs":[],"stateMutability":"nonpayable"},{"type":"event","name":"BaseBountyAmountUpdated","inputs":[{"name":"oldAmount","type":"uint256","indexed":false,"internalType":"uint256"},{"name":"newAmount","type":"uint256","indexed":false,"internalType":"uint256"}],"anonymous":false},{"type":"event","name":"BountyDeposited","inputs":[{"name":"protocolId","type":"bytes32","indexed":true,"internalType":"bytes32"},{"name":"depositor","type":"address","indexed":true,"internalType":"address"},{"name":"amount","type":"uint256","indexed":false,"internalType":"uint256"},{"name":"newBalance","type":"uint256","indexed":false,"internalType":"uint256"}],"anonymous":false},{"type":"event","name":"BountyReleased","inputs":[{"name":"bountyId","type":"bytes32","indexed":true,"internalType":"bytes32"},{"name":"protocolId","type":"bytes32","indexed":true,"internalType":"bytes32"},{"name":"validationId","type":"bytes32","indexed":true,"internalType":"bytes32"},{"name":"researcher","type":"address","indexed":false,"internalType":"address"},{"name":"severity","type":"uint8","indexed":false,"internalType":"enum BountyPool.Severity"},{"name":"amount","type":"uint256","indexed":false,"internalType":"uint256"},{"name":"timestamp","type":"uint256","indexed":false,"internalType":"uint256"}],"anonymous":false},{"type":"event","name":"BountyWithdrawn","inputs":[{"name":"protocolId","type":"bytes32","indexed":true,"internalType":"bytes32"},{"name":"owner","type":"address","indexed":true,"internalType":"address"},{"name":"amount","type":"uint256","indexed":false,"internalType":"uint256"}],"anonymous":false},{"type":"event","name":"RoleAdminChanged","inputs":[{"name":"role","type":"bytes32","indexed":true,"internalType":"bytes32"},{"name":"previousAdminRole","type":"bytes32","indexed":true,"internalType":"bytes32"},{"name":"newAdminRole","type":"bytes32","indexed":true,"internalType":"bytes32"}],"anonymous":false},{"type":"event","name":"RoleGranted","inputs":[{"name":"role","type":"bytes32","indexed":true,"internalType":"bytes32"},{"name":"account","type":"address","indexed":true,"internalType":"address"},{"name":"sender","type":"address","indexed":true,"internalType":"address"}],"anonymous":false},{"type":"event","name":"RoleRevoked","inputs":[{"name":"role","type":"bytes32","indexed":true,"internalType":"bytes32"},{"name":"account","type":"address","indexed":true,"internalType":"address"},{"name":"sender","type":"address","indexed":true,"internalType":"address"}],"anonymous":false},{"type":"event","name":"SeverityMultiplierUpdated","inputs":[{"name":"severity","type":"uint8","indexed":false,"internalType":"enum BountyPool.Severity"},{"name":"oldMultiplier","type":"uint256","indexed":false,"internalType":"uint256"},{"name":"newMultiplier","type":"uint256","indexed":false,"internalType":"uint256"}],"anonymous":false},{"type":"error","name":"AccessControlBadConfirmation","inputs":[]},{"type":"error","name":"AccessControlUnauthorizedAccount","inputs":[{"name":"account","type":"address","internalType":"address"},{"name":"neededRole","type":"bytes32","internalType":"bytes32"}]},{"type":"error","name":"AddressEmptyCode","inputs":[{"name":"target","type":"address","internalType":"address"}]},{"type":"error","name":"AddressInsufficientBalance","inputs":[{"name":"account","type":"address","internalType":"address"}]},{"type":"error","name":"BountyAlreadyPaid","inputs":[{"name":"bountyId","type":"bytes32","internalType":"bytes32"}]},{"type":"error","name":"FailedInnerCall","inputs":[]},{"type":"error","name":"InsufficientBalance","inputs":[{"name":"protocolId","type":"bytes32","internalType":"bytes32"},{"name":"required","type":"uint256","internalType":"uint256"},{"name":"available","type":"uint256","internalType":"uint256"}]},{"type":"error","name":"InvalidAmount","inputs":[]},{"type":"error","name":"InvalidSeverityMultiplier","inputs":[]},{"type":"error","name":"ProtocolNotFound","inputs":[{"name":"protocolId","type":"bytes32","internalType":"bytes32"}]},{"type":"error","name":"ReentrancyGuardReentrantCall","inputs":[]},{"type":"error","name":"SafeERC20FailedOperation","inputs":[{"name":"token","type":"address","internalType":"address"}]},{"type":"error","name":"TransferFailed","inputs":[]}],"bytecode":{"object":"0x60a060405234801562000010575f80fd5b50604051620033a0380380620033a0833981810160405281019062000036919062000453565b600180819055505f73ffffffffffffffffffffffffffffffffffffffff168173ffffffffffffffffffffffffffffffffffffffff1603620000ae576040517f08c379a0000000000000000000000000000000000000000000000000000000008152600401620000a590620004e1565b60405180910390fd5b8073ffffffffffffffffffffffffffffffffffffffff1660808173ffffffffffffffffffffffffffffffffffffffff1681525050620000f65f801b336200028960201b60201c565b50620001297f5612063648f807201ec1c6d4f999a34ed02c6a8b521b7b99e155a6823c568736336200028960201b60201c565b506305f5e10060048190555061c35060035f80600481111562000151576200015062000501565b5b600481111562000166576200016562000501565b5b81526020019081526020015f208190555061753060035f6001600481111562000194576200019362000501565b5b6004811115620001a957620001a862000501565b5b81526020019081526020015f2081905550613a9860035f60026004811115620001d757620001d662000501565b5b6004811115620001ec57620001eb62000501565b5b81526020019081526020015f208190555061271060035f600360048111156200021a576200021962000501565b5b60048111156200022f576200022e62000501565b5b81526020019081526020015f20819055506109c460035f6004808111156200025c576200025b62000501565b5b600481111562000271576200027062000501565b5b81526020019081526020015f2081905550506200052e565b5f6200029c83836200038460201b60201c565b6200037a5760015f808581526020019081526020015f205f015f8473ffffffffffffffffffffffffffffffffffffffff1673ffffffffffffffffffffffffffffffffffffffff1681526020019081526020015f205f6101000a81548160ff02191690831515021790555062000316620003e760201b60201c565b73ffffffffffffffffffffffffffffffffffffffff168273ffffffffffffffffffffffffffffffffffffffff16847f2f8788117e7eff1d82e926ec794901d17c78024a50270940304540a733656f0d60405160405180910390a4600190506200037e565b5f90505b92915050565b5f805f8481526020019081526020015f205f015f8373ffffffffffffffffffffffffffffffffffffffff1673ffffffffffffffffffffffffffffffffffffffff1681526020019081526020015f205f9054906101000a900460ff16905092915050565b5f33905090565b5f80fd5b5f73ffffffffffffffffffffffffffffffffffffffff82169050919050565b5f6200041d82620003f2565b9050919050565b6200042f8162000411565b81146200043a575f80fd5b50565b5f815190506200044d8162000424565b92915050565b5f602082840312156200046b576200046a620003ee565b5b5f6200047a848285016200043d565b91505092915050565b5f82825260208201905092915050565b7f496e76616c6964205553444320616464726573730000000000000000000000005f82015250565b5f620004c960148362000483565b9150620004d68262000493565b602082019050919050565b5f6020820190508181035f830152620004fa81620004bb565b9050919050565b7f4e487b71000000000000000000000000000000000000000000000000000000005f52602160045260245ffd5b608051612e446200055c5f395f81816109fb01528181610d270152818161119001526116b70152612e445ff3fe608060405234801561000f575f80fd5b50600436106101d8575f3560e01c80635ca72b2311610102578063a217fddf116100a0578063d547741f1161006f578063d547741f146105c9578063dcaf9fac146105e5578063de40308d14610615578063edb8019b14610645576101d8565b8063a217fddf1461053a578063b78376e914610558578063bf5522da14610574578063c8953ec1146105ab576101d8565b80637d9007c1116100dc5780637d9007c11461049e57806383281fd9146104ce57806389a30271146104ec57806391d148541461050a576101d8565b80635ca72b231461040e57806364dcf5c91461043e5780637d69da2f1461046e576101d8565b80632594e1501161017a57806341765ab51161014957806341765ab5146103745780634179a8f6146103905780634b6f2f1b146103ae5780635a11aa9b146103de576101d8565b80632594e150146102f05780632f2ff15d1461030c578063307187031461032857806336568abe14610358576101d8565b80631a2c6135116101b65780631a2c6135146102585780632417395c14610274578063248a9ca3146102a45780632513bf49146102d4576101d8565b806301ffc9a7146101dc578063048f16271461020c5780631092d9e714610228575b5f80fd5b6101f660048036038101906101f19190612187565b610675565b60405161020391906121cc565b60405180910390f35b6102266004803603810190610221919061223f565b6106ee565b005b610242600480360381019061023d919061229d565b610728565b60405161024f91906122e0565b60405180910390f35b610272600480360381019061026d9190612346565b610742565b005b61028e6004803603810190610289919061229d565b610849565b60405161029b91906124d3565b60405180910390f35b6102be60048036038101906102b9919061229d565b610950565b6040516102cb91906124fc565b60405180910390f35b6102ee60048036038101906102e99190612515565b61096c565b005b61030a60048036038101906103059190612553565b610ad5565b005b6103266004803603810190610321919061257e565b610b65565b005b610342600480360381019061033d9190612553565b610b87565b60405161034f91906124fc565b60405180910390f35b610372600480360381019061036d919061257e565b610ba7565b005b61038e600480360381019061038991906125bc565b610c22565b005b610398610dc9565b6040516103a591906124fc565b60405180910390f35b6103c860048036038101906103c3919061229d565b610ded565b6040516103d591906122e0565b60405180910390f35b6103f860048036038101906103f3919061260c565b610e02565b60405161040591906122e0565b60405180910390f35b6104286004803603810190610423919061223f565b610e5f565b60405161043591906121cc565b60405180910390f35b6104586004803603810190610453919061260c565b610e91565b60405161046591906122e0565b60405180910390f35b6104886004803603810190610483919061229d565b610ea6565b6040516104959190612780565b60405180910390f35b6104b860048036038101906104b3919061229d565b6110ba565b6040516104c591906122e0565b60405180910390f35b6104d6611182565b6040516104e391906122e0565b60405180910390f35b6104f461118e565b60405161050191906127fb565b60405180910390f35b610524600480360381019061051f919061257e565b6111b2565b60405161053191906121cc565b60405180910390f35b610542611215565b60405161054f91906124fc565b60405180910390f35b610572600480360381019061056d919061223f565b61121b565b005b61058e6004803603810190610589919061229d565b611255565b6040516105a2989796959493929190612832565b60405180910390f35b6105b36112d1565b6040516105c091906122e0565b60405180910390f35b6105e360048036038101906105de919061257e565b6112d7565b005b6105ff60048036038101906105fa91906128ae565b6112f9565b60405161060c91906124fc565b60405180910390f35b61062f600480360381019061062a919061223f565b61174f565b60405161063c9190612780565b60405180910390f35b61065f600480360381019061065a919061223f565b61198f565b60405161066c91906122e0565b60405180910390f35b5f7f7965db0b000000000000000000000000000000000000000000000000000000007bffffffffffffffffffffffffffffffffffffffffffffffffffffffff1916827bffffffffffffffffffffffffffffffffffffffffffffffffffffffff191614806106e757506106e682611a83565b5b9050919050565b5f801b6106fa81611aec565b6107247f5612063648f807201ec1c6d4f999a34ed02c6a8b521b7b99e155a6823c568736836112d7565b5050565b5f60055f8381526020019081526020015f20549050919050565b5f801b61074e81611aec565b5f82148061075e5750620186a082115b15610795576040517fe45f3e7d00000000000000000000000000000000000000000000000000000000815260040160405180910390fd5b5f60035f8560048111156107ac576107ab6123a2565b5b60048111156107be576107bd6123a2565b5b81526020019081526020015f205490508260035f8660048111156107e5576107e46123a2565b5b60048111156107f7576107f66123a2565b5b81526020019081526020015f20819055507fe2673f364b169df369728ac46d60f474f96c1988a636b10ab6657e0e16f8efb384828560405161083b93929190612912565b60405180910390a150505050565b6108516120be565b60065f8381526020019081526020015f20604051806101000160405290815f82015481526020016001820154815260200160028201548152602001600382015f9054906101000a900473ffffffffffffffffffffffffffffffffffffffff1673ffffffffffffffffffffffffffffffffffffffff1673ffffffffffffffffffffffffffffffffffffffff1681526020016003820160149054906101000a900460ff166004811115610905576109046123a2565b5b6004811115610917576109166123a2565b5b81526020016004820154815260200160058201548152602001600682015f9054906101000a900460ff1615151515815250509050919050565b5f805f8381526020019081526020015f20600101549050919050565b610974611b00565b5f801b82036109ba57816040517fd5a1c46a0000000000000000000000000000000000000000000000000000000081526004016109b191906124fc565b60405180910390fd5b5f81036109f3576040517f2c5211c600000000000000000000000000000000000000000000000000000000815260040160405180910390fd5b610a403330837f000000000000000000000000000000000000000000000000000000000000000073ffffffffffffffffffffffffffffffffffffffff16611b46909392919063ffffffff16565b8060055f8481526020019081526020015f205f828254610a609190612974565b925050819055503373ffffffffffffffffffffffffffffffffffffffff16827f82dbddc22dcac275df00a114022732b29a27acb15c4929bea5d8e8789a8a49d68360055f8781526020019081526020015f2054604051610ac19291906129a7565b60405180910390a3610ad1611bc8565b5050565b5f801b610ae181611aec565b5f8203610b1a576040517f2c5211c600000000000000000000000000000000000000000000000000000000815260040160405180910390fd5b5f6004549050826004819055507f4496ce953300f17dd19cce4c87504220fb5bc264c7e209abc784b0c46710f6938184604051610b589291906129a7565b60405180910390a1505050565b610b6e82610950565b610b7781611aec565b610b818383611bd1565b50505050565b60098181548110610b96575f80fd5b905f5260205f20015f915090505481565b610baf611cba565b73ffffffffffffffffffffffffffffffffffffffff168173ffffffffffffffffffffffffffffffffffffffff1614610c13576040517f6697b23200000000000000000000000000000000000000000000000000000000815260040160405180910390fd5b610c1d8282611cc1565b505050565b5f801b610c2e81611aec565b610c36611b00565b5f73ffffffffffffffffffffffffffffffffffffffff168373ffffffffffffffffffffffffffffffffffffffff1603610c9b576040517f2c5211c600000000000000000000000000000000000000000000000000000000815260040160405180910390fd5b5f60055f8681526020019081526020015f2054905082811015610cf9578483826040517fead391f6000000000000000000000000000000000000000000000000000000008152600401610cf0939291906129ce565b60405180910390fd5b8260055f8781526020019081526020015f205f828254610d199190612a03565b92505081905550610d6b84847f000000000000000000000000000000000000000000000000000000000000000073ffffffffffffffffffffffffffffffffffffffff16611daa9092919063ffffffff16565b8373ffffffffffffffffffffffffffffffffffffffff16857f2442bc0b1278dddd289f1b7eef7617be138801a73110bb3fa84dcb05e8dc60f585604051610db291906122e0565b60405180910390a350610dc3611bc8565b50505050565b7f5612063648f807201ec1c6d4f999a34ed02c6a8b521b7b99e155a6823c56873681565b6005602052805f5260405f205f915090505481565b5f8060035f846004811115610e1a57610e196123a2565b5b6004811115610e2c57610e2b6123a2565b5b81526020019081526020015f2054905061271081600454610e4d9190612a36565b610e579190612aa4565b915050919050565b5f610e8a7f5612063648f807201ec1c6d4f999a34ed02c6a8b521b7b99e155a6823c568736836111b2565b9050919050565b6003602052805f5260405f205f915090505481565b60605f60075f8481526020019081526020015f20805480602002602001604051908101604052809291908181526020018280548015610f0257602002820191905f5260205f20905b815481526020019060010190808311610eee575b505050505090505f815167ffffffffffffffff811115610f2557610f24612ad4565b5b604051908082528060200260200182016040528015610f5e57816020015b610f4b6120be565b815260200190600190039081610f435790505b5090505f5b82518110156110af5760065f848381518110610f8257610f81612b01565b5b602002602001015181526020019081526020015f20604051806101000160405290815f82015481526020016001820154815260200160028201548152602001600382015f9054906101000a900473ffffffffffffffffffffffffffffffffffffffff1673ffffffffffffffffffffffffffffffffffffffff1673ffffffffffffffffffffffffffffffffffffffff1681526020016003820160149054906101000a900460ff16600481111561103a576110396123a2565b5b600481111561104c5761104b6123a2565b5b81526020016004820154815260200160058201548152602001600682015f9054906101000a900460ff16151515158152505082828151811061109157611090612b01565b5b602002602001018190525080806110a790612b2e565b915050610f63565b508092505050919050565b5f8060075f8481526020019081526020015f2080548060200260200160405190810160405280929190818152602001828054801561111557602002820191905f5260205f20905b815481526020019060010190808311611101575b505050505090505f805b82518110156111775760065f84838151811061113e5761113d612b01565b5b602002602001015181526020019081526020015f2060040154826111629190612974565b9150808061116f90612b2e565b91505061111f565b508092505050919050565b5f600980549050905090565b7f000000000000000000000000000000000000000000000000000000000000000081565b5f805f8481526020019081526020015f205f015f8373ffffffffffffffffffffffffffffffffffffffff1673ffffffffffffffffffffffffffffffffffffffff1681526020019081526020015f205f9054906101000a900460ff16905092915050565b5f801b81565b5f801b61122781611aec565b6112517f5612063648f807201ec1c6d4f999a34ed02c6a8b521b7b99e155a6823c56873683610b65565b5050565b6006602052805f5260405f205f91509050805f015490806001015490806002015490806003015f9054906101000a900473ffffffffffffffffffffffffffffffffffffffff16908060030160149054906101000a900460ff1690806004015490806005015490806006015f9054906101000a900460ff16905088565b60045481565b6112e082610950565b6112e981611aec565b6112f38383611cc1565b50505050565b5f7f5612063648f807201ec1c6d4f999a34ed02c6a8b521b7b99e155a6823c56873661132481611aec565b61132c611b00565b5f801b860361137257856040517fd5a1c46a00000000000000000000000000000000000000000000000000000000815260040161136991906124fc565b60405180910390fd5b5f73ffffffffffffffffffffffffffffffffffffffff168473ffffffffffffffffffffffffffffffffffffffff16036113d7576040517f2c5211c600000000000000000000000000000000000000000000000000000000815260040160405180910390fd5b5f6113e184610e02565b90505f60055f8981526020019081526020015f2054905081811015611441578782826040517fead391f6000000000000000000000000000000000000000000000000000000008152600401611438939291906129ce565b60405180910390fd5b60025f81548092919061145390612b2e565b919050555087878742600254604051602001611473959493929190612bfa565b6040516020818303038152906040528051906020012093505f6040518061010001604052808681526020018a81526020018981526020018873ffffffffffffffffffffffffffffffffffffffff1681526020018760048111156114d9576114d86123a2565b5b81526020018481526020014281526020016001151581525090508060065f8781526020019081526020015f205f820151815f015560208201518160010155604082015181600201556060820151816003015f6101000a81548173ffffffffffffffffffffffffffffffffffffffff021916908373ffffffffffffffffffffffffffffffffffffffff16021790555060808201518160030160146101000a81548160ff02191690836004811115611592576115916123a2565b5b021790555060a0820151816004015560c0820151816005015560e0820151816006015f6101000a81548160ff02191690831515021790555090505060075f8a81526020019081526020015f2085908060018154018082558091505060019003905f5260205f20015f909190919091505560085f8873ffffffffffffffffffffffffffffffffffffffff1673ffffffffffffffffffffffffffffffffffffffff1681526020019081526020015f2085908060018154018082558091505060019003905f5260205f20015f9091909190915055600985908060018154018082558091505060019003905f5260205f20015f90919091909150558260055f8b81526020019081526020015f205f8282546116a99190612a03565b925050819055506116fb87847f000000000000000000000000000000000000000000000000000000000000000073ffffffffffffffffffffffffffffffffffffffff16611daa9092919063ffffffff16565b8789867ff6e521be0c396c6f6f18bbf4230f861e7a93f3eb6f5239ced114e94e318f07e58a8a88426040516117339493929190612c58565b60405180910390a4505050611746611bc8565b50949350505050565b60605f60085f8473ffffffffffffffffffffffffffffffffffffffff1673ffffffffffffffffffffffffffffffffffffffff1681526020019081526020015f208054806020026020016040519081016040528092919081815260200182805480156117d757602002820191905f5260205f20905b8154815260200190600101908083116117c3575b505050505090505f815167ffffffffffffffff8111156117fa576117f9612ad4565b5b60405190808252806020026020018201604052801561183357816020015b6118206120be565b8152602001906001900390816118185790505b5090505f5b82518110156119845760065f84838151811061185757611856612b01565b5b602002602001015181526020019081526020015f20604051806101000160405290815f82015481526020016001820154815260200160028201548152602001600382015f9054906101000a900473ffffffffffffffffffffffffffffffffffffffff1673ffffffffffffffffffffffffffffffffffffffff1673ffffffffffffffffffffffffffffffffffffffff1681526020016003820160149054906101000a900460ff16600481111561190f5761190e6123a2565b5b6004811115611921576119206123a2565b5b81526020016004820154815260200160058201548152602001600682015f9054906101000a900460ff16151515158152505082828151811061196657611965612b01565b5b6020026020010181905250808061197c90612b2e565b915050611838565b508092505050919050565b5f8060085f8473ffffffffffffffffffffffffffffffffffffffff1673ffffffffffffffffffffffffffffffffffffffff1681526020019081526020015f20805480602002602001604051908101604052809291908181526020018280548015611a1657602002820191905f5260205f20905b815481526020019060010190808311611a02575b505050505090505f805b8251811015611a785760065f848381518110611a3f57611a3e612b01565b5b602002602001015181526020019081526020015f206004015482611a639190612974565b91508080611a7090612b2e565b915050611a20565b508092505050919050565b5f7f01ffc9a7000000000000000000000000000000000000000000000000000000007bffffffffffffffffffffffffffffffffffffffffffffffffffffffff1916827bffffffffffffffffffffffffffffffffffffffffffffffffffffffff1916149050919050565b611afd81611af8611cba565b611e29565b50565b600260015403611b3c576040517f3ee5aeb500000000000000000000000000000000000000000000000000000000815260040160405180910390fd5b6002600181905550565b611bc2848573ffffffffffffffffffffffffffffffffffffffff166323b872dd868686604051602401611b7b93929190612c9b565b604051602081830303815290604052915060e01b6020820180517bffffffffffffffffffffffffffffffffffffffffffffffffffffffff8381831617835250505050611e7a565b50505050565b60018081905550565b5f611bdc83836111b2565b611cb05760015f808581526020019081526020015f205f015f8473ffffffffffffffffffffffffffffffffffffffff1673ffffffffffffffffffffffffffffffffffffffff1681526020019081526020015f205f6101000a81548160ff021916908315150217905550611c4d611cba565b73ffffffffffffffffffffffffffffffffffffffff168273ffffffffffffffffffffffffffffffffffffffff16847f2f8788117e7eff1d82e926ec794901d17c78024a50270940304540a733656f0d60405160405180910390a460019050611cb4565b5f90505b92915050565b5f33905090565b5f611ccc83836111b2565b15611da0575f805f8581526020019081526020015f205f015f8473ffffffffffffffffffffffffffffffffffffffff1673ffffffffffffffffffffffffffffffffffffffff1681526020019081526020015f205f6101000a81548160ff021916908315150217905550611d3d611cba565b73ffffffffffffffffffffffffffffffffffffffff168273ffffffffffffffffffffffffffffffffffffffff16847ff6391f5c32d9c69d2a47ea670b442974b53935d1edc7fd64eb21e047a839171b60405160405180910390a460019050611da4565b5f90505b92915050565b611e24838473ffffffffffffffffffffffffffffffffffffffff1663a9059cbb8585604051602401611ddd929190612cd0565b604051602081830303815290604052915060e01b6020820180517bffffffffffffffffffffffffffffffffffffffffffffffffffffffff8381831617835250505050611e7a565b505050565b611e3382826111b2565b611e765780826040517fe2517d3f000000000000000000000000000000000000000000000000000000008152600401611e6d929190612cf7565b60405180910390fd5b5050565b5f611ea4828473ffffffffffffffffffffffffffffffffffffffff16611f0f90919063ffffffff16565b90505f815114158015611ec8575080806020019051810190611ec69190612d48565b155b15611f0a57826040517f5274afe7000000000000000000000000000000000000000000000000000000008152600401611f019190612d73565b60405180910390fd5b505050565b6060611f1c83835f611f24565b905092915050565b606081471015611f6b57306040517fcd786059000000000000000000000000000000000000000000000000000000008152600401611f629190612d73565b60405180910390fd5b5f808573ffffffffffffffffffffffffffffffffffffffff168486604051611f939190612df8565b5f6040518083038185875af1925050503d805f8114611fcd576040519150601f19603f3d011682016040523d82523d5f602084013e611fd2565b606091505b5091509150611fe2868383611fed565b925050509392505050565b60608261200257611ffd8261207a565b612072565b5f825114801561202857505f8473ffffffffffffffffffffffffffffffffffffffff163b145b1561206a57836040517f9996b3150000000000000000000000000000000000000000000000000000000081526004016120619190612d73565b60405180910390fd5b819050612073565b5b9392505050565b5f8151111561208c5780518082602001fd5b6040517f1425ea4200000000000000000000000000000000000000000000000000000000815260040160405180910390fd5b6040518061010001604052805f80191681526020015f80191681526020015f80191681526020015f73ffffffffffffffffffffffffffffffffffffffff1681526020015f6004811115612114576121136123a2565b5b81526020015f81526020015f81526020015f151581525090565b5f80fd5b5f7fffffffff0000000000000000000000000000000000000000000000000000000082169050919050565b61216681612132565b8114612170575f80fd5b50565b5f813590506121818161215d565b92915050565b5f6020828403121561219c5761219b61212e565b5b5f6121a984828501612173565b91505092915050565b5f8115159050919050565b6121c6816121b2565b82525050565b5f6020820190506121df5f8301846121bd565b92915050565b5f73ffffffffffffffffffffffffffffffffffffffff82169050919050565b5f61220e826121e5565b9050919050565b61221e81612204565b8114612228575f80fd5b50565b5f8135905061223981612215565b92915050565b5f602082840312156122545761225361212e565b5b5f6122618482850161222b565b91505092915050565b5f819050919050565b61227c8161226a565b8114612286575f80fd5b50565b5f8135905061229781612273565b92915050565b5f602082840312156122b2576122b161212e565b5b5f6122bf84828501612289565b91505092915050565b5f819050919050565b6122da816122c8565b82525050565b5f6020820190506122f35f8301846122d1565b92915050565b60058110612305575f80fd5b50565b5f81359050612316816122f9565b92915050565b612325816122c8565b811461232f575f80fd5b50565b5f813590506123408161231c565b92915050565b5f806040838503121561235c5761235b61212e565b5b5f61236985828601612308565b925050602061237a85828601612332565b9150509250929050565b61238d8161226a565b82525050565b61239c81612204565b82525050565b7f4e487b71000000000000000000000000000000000000000000000000000000005f52602160045260245ffd5b600581106123e0576123df6123a2565b5b50565b5f8190506123f0826123cf565b919050565b5f6123ff826123e3565b9050919050565b61240f816123f5565b82525050565b61241e816122c8565b82525050565b61242d816121b2565b82525050565b61010082015f8201516124485f850182612384565b50602082015161245b6020850182612384565b50604082015161246e6040850182612384565b5060608201516124816060850182612393565b5060808201516124946080850182612406565b5060a08201516124a760a0850182612415565b5060c08201516124ba60c0850182612415565b5060e08201516124cd60e0850182612424565b50505050565b5f610100820190506124e75f830184612433565b92915050565b6124f68161226a565b82525050565b5f60208201905061250f5f8301846124ed565b92915050565b5f806040838503121561252b5761252a61212e565b5b5f61253885828601612289565b925050602061254985828601612332565b9150509250929050565b5f602082840312156125685761256761212e565b5b5f61257584828501612332565b91505092915050565b5f80604083850312156125945761259361212e565b5b5f6125a185828601612289565b92505060206125b28582860161222b565b9150509250929050565b5f805f606084860312156125d3576125d261212e565b5b5f6125e086828701612289565b93505060206125f18682870161222b565b925050604061260286828701612332565b9150509250925092565b5f602082840312156126215761262061212e565b5b5f61262e84828501612308565b91505092915050565b5f81519050919050565b5f82825260208201905092915050565b5f819050602082019050919050565b61010082015f8201516126755f850182612384565b5060208201516126886020850182612384565b50604082015161269b6040850182612384565b5060608201516126ae6060850182612393565b5060808201516126c16080850182612406565b5060a08201516126d460a0850182612415565b5060c08201516126e760c0850182612415565b5060e08201516126fa60e0850182612424565b50505050565b5f61270b8383612660565b6101008301905092915050565b5f602082019050919050565b5f61272e82612637565b6127388185612641565b935061274383612651565b805f5b8381101561277357815161275a8882612700565b975061276583612718565b925050600181019050612746565b5085935050505092915050565b5f6020820190508181035f8301526127988184612724565b905092915050565b5f819050919050565b5f6127c36127be6127b9846121e5565b6127a0565b6121e5565b9050919050565b5f6127d4826127a9565b9050919050565b5f6127e5826127ca565b9050919050565b6127f5816127db565b82525050565b5f60208201905061280e5f8301846127ec565b92915050565b61281d81612204565b82525050565b61282c816123f5565b82525050565b5f610100820190506128465f83018b6124ed565b612853602083018a6124ed565b61286060408301896124ed565b61286d6060830188612814565b61287a6080830187612823565b61288760a08301866122d1565b61289460c08301856122d1565b6128a160e08301846121bd565b9998505050505050505050565b5f805f80608085870312156128c6576128c561212e565b5b5f6128d387828801612289565b94505060206128e487828801612289565b93505060406128f58782880161222b565b925050606061290687828801612308565b91505092959194509250565b5f6060820190506129255f830186612823565b61293260208301856122d1565b61293f60408301846122d1565b949350505050565b7f4e487b71000000000000000000000000000000000000000000000000000000005f52601160045260245ffd5b5f61297e826122c8565b9150612989836122c8565b92508282019050808211156129a1576129a0612947565b5b92915050565b5f6040820190506129ba5f8301856122d1565b6129c760208301846122d1565b9392505050565b5f6060820190506129e15f8301866124ed565b6129ee60208301856122d1565b6129fb60408301846122d1565b949350505050565b5f612a0d826122c8565b9150612a18836122c8565b9250828203905081811115612a3057612a2f612947565b5b92915050565b5f612a40826122c8565b9150612a4b836122c8565b9250828202612a59816122c8565b91508282048414831517612a7057612a6f612947565b5b5092915050565b7f4e487b71000000000000000000000000000000000000000000000000000000005f52601260045260245ffd5b5f612aae826122c8565b9150612ab9836122c8565b925082612ac957612ac8612a77565b5b828204905092915050565b7f4e487b71000000000000000000000000000000000000000000000000000000005f52604160045260245ffd5b7f4e487b71000000000000000000000000000000000000000000000000000000005f52603260045260245ffd5b5f612b38826122c8565b91507fffffffffffffffffffffffffffffffffffffffffffffffffffffffffffffffff8203612b6a57612b69612947565b5b600182019050919050565b5f819050919050565b612b8f612b8a8261226a565b612b75565b82525050565b5f8160601b9050919050565b5f612bab82612b95565b9050919050565b5f612bbc82612ba1565b9050919050565b612bd4612bcf82612204565b612bb2565b82525050565b5f819050919050565b612bf4612bef826122c8565b612bda565b82525050565b5f612c058288612b7e565b602082019150612c158287612b7e565b602082019150612c258286612bc3565b601482019150612c358285612be3565b602082019150612c458284612be3565b6020820191508190509695505050505050565b5f608082019050612c6b5f830187612814565b612c786020830186612823565b612c8560408301856122d1565b612c9260608301846122d1565b95945050505050565b5f606082019050612cae5f830186612814565b612cbb6020830185612814565b612cc860408301846122d1565b949350505050565b5f604082019050612ce35f830185612814565b612cf060208301846122d1565b9392505050565b5f604082019050612d0a5f830185612814565b612d1760208301846124ed565b9392505050565b612d27816121b2565b8114612d31575f80fd5b50565b5f81519050612d4281612d1e565b92915050565b5f60208284031215612d5d57612d5c61212e565b5b5f612d6a84828501612d34565b91505092915050565b5f602082019050612d865f830184612814565b92915050565b5f81519050919050565b5f81905092915050565b5f5b83811015612dbd578082015181840152602081019050612da2565b5f8484015250505050565b5f612dd282612d8c565b612ddc8185612d96565b9350612dec818560208601612da0565b80840191505092915050565b5f612e038284612dc8565b91508190509291505056fea26469706673582212208c408cc7f9ee310440678a02cf0cbda95b83b2eebb1cee22a50b2d60bfa4443e64736f6c63430008140033","linkReferences":{}},"methodIdentifiers":{"DEFAULT_ADMIN_ROLE()":"a217fddf","PAYOUT_ROLE()":"4179a8f6","USDC()":"89a30271","addPayer(address)":"b78376e9","allBountyIds(uint256)":"30718703","baseBountyAmount()":"c8953ec1","bounties(bytes32)":"bf5522da","calculateBountyAmount(uint8)":"5a11aa9b","depositBounty(bytes32,uint256)":"2513bf49","emergencyWithdraw(bytes32,address,uint256)":"41765ab5","getBounty(bytes32)":"2417395c","getProtocolBalance(bytes32)":"1092d9e7","getProtocolBounties(bytes32)":"7d69da2f","getResearcherBounties(address)":"de40308d","getResearcherEarnings(address)":"edb8019b","getRoleAdmin(bytes32)":"248a9ca3","getTotalBountiesPaid(bytes32)":"7d9007c1","getTotalBountyCount()":"83281fd9","grantRole(bytes32,address)":"2f2ff15d","hasRole(bytes32,address)":"91d14854","isPayer(address)":"5ca72b23","protocolBalances(bytes32)":"4b6f2f1b","releaseBounty(bytes32,bytes32,address,uint8)":"dcaf9fac","removePayer(address)":"048f1627","renounceRole(bytes32,address)":"36568abe","revokeRole(bytes32,address)":"d547741f","severityMultipliers(uint8)":"64dcf5c9","supportsInterface(bytes4)":"01ffc9a7","updateBaseBountyAmount(uint256)":"2594e150","updateSeverityMultiplier(uint8,uint256)":"1a2c6135"},"id":30}