{"abi":[{"type":"constructor","inputs":[],"stateMutability":"nonpayable"},{"type":"function","name":"allProtocolIds","inputs":[{"name":"","type":"uint256","internalType":"uint256"}],"outputs":[{"name":"","type":"bytes32","internalType":"bytes32"}],"stateMutability":"view"},{"type":"function","name":"getAllProtocolIds","inputs":[],"outputs":[{"name":"","type":"bytes32[]","internalType":"bytes32[]"}],"stateMutability":"view"},{"type":"function","name":"getProtocol","inputs":[{"name":"protocolId","type":"bytes32","internalType":"bytes32"}],"outputs":[{"name":"","type":"tuple","internalType":"struct ProtocolRegistry.Protocol","components":[{"name":"protocolId","type":"bytes32","internalType":"bytes32"},{"name":"owner","type":"address","internalType":"address"},{"name":"githubUrl","type":"string","internalType":"string"},{"name":"contractPath","type":"string","internalType":"string"},{"name":"contractName","type":"string","internalType":"string"},{"name":"bountyTermsHash","type":"bytes32","internalType":"bytes32"},{"name":"status","type":"uint8","internalType":"enum ProtocolRegistry.ProtocolStatus"},{"name":"registeredAt","type":"uint256","internalType":"uint256"},{"name":"totalBountyPool","type":"uint256","internalType":"uint256"}]}],"stateMutability":"view"},{"type":"function","name":"getProtocolCount","inputs":[],"outputs":[{"name":"","type":"uint256","internalType":"uint256"}],"stateMutability":"view"},{"type":"function","name":"getProtocolIdByGithubUrl","inputs":[{"name":"githubUrl","type":"string","internalType":"string"}],"outputs":[{"name":"","type":"bytes32","internalType":"bytes32"}],"stateMutability":"view"},{"type":"function","name":"getProtocolsByOwner","inputs":[{"name":"ownerAddress","type":"address","internalType":"address"}],"outputs":[{"name":"","type":"bytes32[]","internalType":"bytes32[]"}],"stateMutability":"view"},{"type":"function","name":"isGithubUrlRegistered","inputs":[{"name":"githubUrl","type":"string","internalType":"string"}],"outputs":[{"name":"","type":"bool","internalType":"bool"}],"stateMutability":"view"},{"type":"function","name":"owner","inputs":[],"outputs":[{"name":"","type":"address","internalType":"address"}],"stateMutability":"view"},{"type":"function","name":"protocols","inputs":[{"name":"","type":"bytes32","internalType":"bytes32"}],"outputs":[{"name":"protocolId","type":"bytes32","internalType":"bytes32"},{"name":"owner","type":"address","internalType":"address"},{"name":"githubUrl","type":"string","internalType":"string"},{"name":"contractPath","type":"string","internalType":"string"},{"name":"contractName","type":"string","internalType":"string"},{"name":"bountyTermsHash","type":"bytes32","internalType":"bytes32"},{"name":"status","type":"uint8","internalType":"enum ProtocolRegistry.ProtocolStatus"},{"name":"registeredAt","type":"uint256","internalType":"uint256"},{"name":"totalBountyPool","type":"uint256","internalType":"uint256"}],"stateMutability":"view"},{"type":"function","name":"registerProtocol","inputs":[{"name":"githubUrl","type":"string","internalType":"string"},{"name":"contractPath","type":"string","internalType":"string"},{"name":"contractName","type":"string","internalType":"string"},{"name":"bountyTerms","type":"string","internalType":"string"}],"outputs":[{"name":"protocolId","type":"bytes32","internalType":"bytes32"}],"stateMutability":"nonpayable"},{"type":"function","name":"renounceOwnership","inputs":[],"outputs":[],"stateMutability":"nonpayable"},{"type":"function","name":"transferOwnership","inputs":[{"name":"newOwner","type":"address","internalType":"address"}],"outputs":[],"stateMutability":"nonpayable"},{"type":"function","name":"updateBountyPool","inputs":[{"name":"protocolId","type":"bytes32","internalType":"bytes32"},{"name":"amount","type":"uint256","internalType":"uint256"}],"outputs":[],"stateMutability":"nonpayable"},{"type":"function","name":"updateProtocolStatus","inputs":[{"name":"protocolId","type":"bytes32","internalType":"bytes32"},{"name":"newStatus","type":"uint8","internalType":"enum ProtocolRegistry.ProtocolStatus"}],"outputs":[],"stateMutability":"nonpayable"},{"type":"event","name":"BountyPoolUpdated","inputs":[{"name":"protocolId","type":"bytes32","indexed":true,"internalType":"bytes32"},{"name":"oldAmount","type":"uint256","indexed":false,"internalType":"uint256"},{"name":"newAmount","type":"uint256","indexed":false,"internalType":"uint256"}],"anonymous":false},{"type":"event","name":"OwnershipTransferred","inputs":[{"name":"previousOwner","type":"address","indexed":true,"internalType":"address"},{"name":"newOwner","type":"address","indexed":true,"internalType":"address"}],"anonymous":false},{"type":"event","name":"ProtocolRegistered","inputs":[{"name":"protocolId","type":"bytes32","indexed":true,"internalType":"bytes32"},{"name":"owner","type":"address","indexed":true,"internalType":"address"},{"name":"githubUrl","type":"string","indexed":false,"internalType":"string"},{"name":"contractPath","type":"string","indexed":false,"internalType":"string"},{"name":"contractName","type":"string","indexed":false,"internalType":"string"},{"name":"registeredAt","type":"uint256","indexed":false,"internalType":"uint256"}],"anonymous":false},{"type":"event","name":"ProtocolStatusUpdated","inputs":[{"name":"protocolId","type":"bytes32","indexed":true,"internalType":"bytes32"},{"name":"oldStatus","type":"uint8","indexed":false,"internalType":"enum ProtocolRegistry.ProtocolStatus"},{"name":"newStatus","type":"uint8","indexed":false,"internalType":"enum ProtocolRegistry.ProtocolStatus"}],"anonymous":false},{"type":"error","name":"InvalidGithubUrl","inputs":[]},{"type":"error","name":"OwnableInvalidOwner","inputs":[{"name":"owner","type":"address","internalType":"address"}]},{"type":"error","name":"OwnableUnauthorizedAccount","inputs":[{"name":"account","type":"address","internalType":"address"}]},{"type":"error","name":"ProtocolAlreadyRegistered","inputs":[{"name":"githubUrl","type":"string","internalType":"string"}]},{"type":"error","name":"ProtocolNotFound","inputs":[{"name":"protocolId","type":"bytes32","internalType":"bytes32"}]},{"type":"error","name":"UnauthorizedAccess","inputs":[]}],"bytecode":{"object":"0x608060405234801562000010575f80fd5b50335f73ffffffffffffffffffffffffffffffffffffffff168173ffffffffffffffffffffffffffffffffffffffff160362000085575f6040517f1e4fbdf70000000000000000000000000000000000000000000000000000000081526004016200007c9190620001a1565b60405180910390fd5b62000096816200009d60201b60201c565b50620001bc565b5f805f9054906101000a900473ffffffffffffffffffffffffffffffffffffffff169050815f806101000a81548173ffffffffffffffffffffffffffffffffffffffff021916908373ffffffffffffffffffffffffffffffffffffffff1602179055508173ffffffffffffffffffffffffffffffffffffffff168173ffffffffffffffffffffffffffffffffffffffff167f8be0079c531659141344cd1fd0a4f28419497f9722a3daafe3b4186f6b6457e060405160405180910390a35050565b5f73ffffffffffffffffffffffffffffffffffffffff82169050919050565b5f62000189826200015e565b9050919050565b6200019b816200017d565b82525050565b5f602082019050620001b65f83018462000190565b92915050565b61211480620001ca5f395ff3fe608060405234801561000f575f80fd5b50600436106100e8575f3560e01c80638da5cb5b1161008a578063b392d97211610064578063b392d97214610276578063b59c8637146102a6578063dae9327f146102c2578063f2fde38b146102e0576100e8565b80638da5cb5b1461021e578063938b79bc1461023c578063ab4250091461025a576100e8565b80635515fe0a116100c65780635515fe0a1461017c578063605d87c5146101b4578063709055bb146101e4578063715018a614610214576100e8565b80630eca8af8146100ec5780632592d90c1461011c578063521577511461014c575b5f80fd5b61010660048036038101906101019190611338565b6102fc565b6040516101139190611596565b60405180910390f35b610136600480360381019061013191906115e0565b6105db565b604051610143919061161a565b60405180910390f35b6101666004803603810190610161919061165d565b6105fb565b6040516101739190611730565b60405180910390f35b61019660048036038101906101919190611338565b6107fa565b6040516101ab999897969594939291906117c5565b60405180910390f35b6101ce60048036038101906101c99190611991565b610a01565b6040516101db919061161a565b60405180910390f35b6101fe60048036038101906101f991906119d8565b610a46565b60405161020b919061161a565b60405180910390f35b61021c610d6e565b005b610226610d81565b6040516102339190611aac565b60405180910390f35b610244610da8565b6040516102519190611ac5565b60405180910390f35b610274600480360381019061026f9190611ade565b610db4565b005b610290600480360381019061028b9190611991565b610e69565b60405161029d9190611b36565b60405180910390f35b6102c060048036038101906102bb9190611b72565b610eb3565b005b6102ca611057565b6040516102d79190611730565b60405180910390f35b6102fa60048036038101906102f5919061165d565b6110ad565b005b610304611280565b5f60025f8481526020019081526020015f20604051806101200160405290815f8201548152602001600182015f9054906101000a900473ffffffffffffffffffffffffffffffffffffffff1673ffffffffffffffffffffffffffffffffffffffff1673ffffffffffffffffffffffffffffffffffffffff16815260200160028201805461039090611bdd565b80601f01602080910402602001604051908101604052809291908181526020018280546103bc90611bdd565b80156104075780601f106103de57610100808354040283529160200191610407565b820191905f5260205f20905b8154815290600101906020018083116103ea57829003601f168201915b5050505050815260200160038201805461042090611bdd565b80601f016020809104026020016040519081016040528092919081815260200182805461044c90611bdd565b80156104975780601f1061046e57610100808354040283529160200191610497565b820191905f5260205f20905b81548152906001019060200180831161047a57829003601f168201915b505050505081526020016004820180546104b090611bdd565b80601f01602080910402602001604051908101604052809291908181526020018280546104dc90611bdd565b80156105275780601f106104fe57610100808354040283529160200191610527565b820191905f5260205f20905b81548152906001019060200180831161050a57829003601f168201915b5050505050815260200160058201548152602001600682015f9054906101000a900460ff16600381111561055e5761055d61143b565b5b60038111156105705761056f61143b565b5b81526020016007820154815260200160088201548152505090505f8160e00151036105d257826040517fd5a1c46a0000000000000000000000000000000000000000000000000000000081526004016105c9919061161a565b60405180910390fd5b80915050919050565b600481815481106105ea575f80fd5b905f5260205f20015f915090505481565b60605f805b6004805490508110156106b1578373ffffffffffffffffffffffffffffffffffffffff1660025f6004848154811061063b5761063a611c0d565b5b905f5260205f20015481526020019081526020015f206001015f9054906101000a900473ffffffffffffffffffffffffffffffffffffffff1673ffffffffffffffffffffffffffffffffffffffff160361069e57818061069a90611c67565b9250505b80806106a990611c67565b915050610600565b505f8167ffffffffffffffff8111156106cd576106cc61186d565b5b6040519080825280602002602001820160405280156106fb5781602001602082028036833780820191505090505b5090505f805b6004805490508110156107ee578573ffffffffffffffffffffffffffffffffffffffff1660025f6004848154811061073c5761073b611c0d565b5b905f5260205f20015481526020019081526020015f206001015f9054906101000a900473ffffffffffffffffffffffffffffffffffffffff1673ffffffffffffffffffffffffffffffffffffffff16036107db57600481815481106107a4576107a3611c0d565b5b905f5260205f2001548383815181106107c0576107bf611c0d565b5b60200260200101818152505081806107d790611c67565b9250505b80806107e690611c67565b915050610701565b50819350505050919050565b6002602052805f5260405f205f91509050805f015490806001015f9054906101000a900473ffffffffffffffffffffffffffffffffffffffff169080600201805461084490611bdd565b80601f016020809104026020016040519081016040528092919081815260200182805461087090611bdd565b80156108bb5780601f10610892576101008083540402835291602001916108bb565b820191905f5260205f20905b81548152906001019060200180831161089e57829003601f168201915b5050505050908060030180546108d090611bdd565b80601f01602080910402602001604051908101604052809291908181526020018280546108fc90611bdd565b80156109475780601f1061091e57610100808354040283529160200191610947565b820191905f5260205f20905b81548152906001019060200180831161092a57829003601f168201915b50505050509080600401805461095c90611bdd565b80601f016020809104026020016040519081016040528092919081815260200182805461098890611bdd565b80156109d35780601f106109aa576101008083540402835291602001916109d3565b820191905f5260205f20905b8154815290600101906020018083116109b657829003601f168201915b505050505090806005015490806006015f9054906101000a900460ff16908060070154908060080154905089565b5f8082604051602001610a149190611ce8565b60405160208183030381529060405280519060200120905060035f8281526020019081526020015f2054915050919050565b5f80855103610a81576040517f320ad03e00000000000000000000000000000000000000000000000000000000815260040160405180910390fd5b5f85604051602001610a939190611ce8565b6040516020818303038152906040528051906020012090505f801b60035f8381526020019081526020015f205414610b0257856040517ff8952753000000000000000000000000000000000000000000000000000000008152600401610af99190611cfe565b60405180910390fd5b60015f815480929190610b1490611c67565b9190505550338642600154604051602001610b329493929190611d83565b6040516020818303038152906040528051906020012091505f83604051602001610b5c9190611ce8565b6040516020818303038152906040528051906020012090505f6040518061012001604052808581526020013373ffffffffffffffffffffffffffffffffffffffff1681526020018981526020018881526020018781526020018381526020015f6003811115610bce57610bcd61143b565b5b81526020014281526020015f81525090508060025f8681526020019081526020015f205f820151815f01556020820151816001015f6101000a81548173ffffffffffffffffffffffffffffffffffffffff021916908373ffffffffffffffffffffffffffffffffffffffff1602179055506040820151816002019081610c549190611f69565b506060820151816003019081610c6a9190611f69565b506080820151816004019081610c809190611f69565b5060a0820151816005015560c0820151816006015f6101000a81548160ff02191690836003811115610cb557610cb461143b565b5b021790555060e0820151816007015561010082015181600801559050508360035f8581526020019081526020015f2081905550600484908060018154018082558091505060019003905f5260205f20015f90919091909150553373ffffffffffffffffffffffffffffffffffffffff16847f582220e1709de9508ad39da565834788949a857a0843ce4e2b85ddad509246468a8a8a42604051610d5b9493929190612038565b60405180910390a3505050949350505050565b610d76611131565b610d7f5f6111b8565b565b5f805f9054906101000a900473ffffffffffffffffffffffffffffffffffffffff16905090565b5f600480549050905090565b610dbc611131565b5f60025f8481526020019081526020015f2090505f816007015403610e1857826040517fd5a1c46a000000000000000000000000000000000000000000000000000000008152600401610e0f919061161a565b60405180910390fd5b5f81600801549050828260080181905550837f65b81614072c83f1da122a40d980adcfa9a8df3b8d99d17fe7e07c9ab64af8c18285604051610e5b929190612090565b60405180910390a250505050565b5f8082604051602001610e7c9190611ce8565b6040516020818303038152906040528051906020012090505f801b60035f8381526020019081526020015f20541415915050919050565b5f60025f8481526020019081526020015f2090505f816007015403610f0f57826040517fd5a1c46a000000000000000000000000000000000000000000000000000000008152600401610f06919061161a565b60405180910390fd5b806001015f9054906101000a900473ffffffffffffffffffffffffffffffffffffffff1673ffffffffffffffffffffffffffffffffffffffff163373ffffffffffffffffffffffffffffffffffffffff1614158015610fa15750610f71610d81565b73ffffffffffffffffffffffffffffffffffffffff163373ffffffffffffffffffffffffffffffffffffffff1614155b15610fd8576040517f344fd58600000000000000000000000000000000000000000000000000000000815260040160405180910390fd5b5f816006015f9054906101000a900460ff16905082826006015f6101000a81548160ff021916908360038111156110125761101161143b565b5b0217905550837f9f05f50c0f90649df7e167de961ca45524e6881d537456a73db6c81bf06d9a6782856040516110499291906120b7565b60405180910390a250505050565b606060048054806020026020016040519081016040528092919081815260200182805480156110a357602002820191905f5260205f20905b81548152602001906001019080831161108f575b5050505050905090565b6110b5611131565b5f73ffffffffffffffffffffffffffffffffffffffff168173ffffffffffffffffffffffffffffffffffffffff1603611125575f6040517f1e4fbdf700000000000000000000000000000000000000000000000000000000815260040161111c9190611aac565b60405180910390fd5b61112e816111b8565b50565b611139611279565b73ffffffffffffffffffffffffffffffffffffffff16611157610d81565b73ffffffffffffffffffffffffffffffffffffffff16146111b65761117a611279565b6040517f118cdaa70000000000000000000000000000000000000000000000000000000081526004016111ad9190611aac565b60405180910390fd5b565b5f805f9054906101000a900473ffffffffffffffffffffffffffffffffffffffff169050815f806101000a81548173ffffffffffffffffffffffffffffffffffffffff021916908373ffffffffffffffffffffffffffffffffffffffff1602179055508173ffffffffffffffffffffffffffffffffffffffff168173ffffffffffffffffffffffffffffffffffffffff167f8be0079c531659141344cd1fd0a4f28419497f9722a3daafe3b4186f6b6457e060405160405180910390a35050565b5f33905090565b6040518061012001604052805f80191681526020015f73ffffffffffffffffffffffffffffffffffffffff1681526020016060815260200160608152602001606081526020015f80191681526020015f60038111156112e2576112e161143b565b5b81526020015f81526020015f81525090565b5f604051905090565b5f80fd5b5f80fd5b5f819050919050565b61131781611305565b8114611321575f80fd5b50565b5f813590506113328161130e565b92915050565b5f6020828403121561134d5761134c6112fd565b5b5f61135a84828501611324565b91505092915050565b61136c81611305565b82525050565b5f73ffffffffffffffffffffffffffffffffffffffff82169050919050565b5f61139b82611372565b9050919050565b6113ab81611391565b82525050565b5f81519050919050565b5f82825260208201905092915050565b5f5b838110156113e85780820151818401526020810190506113cd565b5f8484015250505050565b5f601f19601f8301169050919050565b5f61140d826113b1565b61141781856113bb565b93506114278185602086016113cb565b611430816113f3565b840191505092915050565b7f4e487b71000000000000000000000000000000000000000000000000000000005f52602160045260245ffd5b600481106114795761147861143b565b5b50565b5f81905061148982611468565b919050565b5f6114988261147c565b9050919050565b6114a88161148e565b82525050565b5f819050919050565b6114c0816114ae565b82525050565b5f61012083015f8301516114dc5f860182611363565b5060208301516114ef60208601826113a2565b50604083015184820360408601526115078282611403565b915050606083015184820360608601526115218282611403565b9150506080830151848203608086015261153b8282611403565b91505060a083015161155060a0860182611363565b5060c083015161156360c086018261149f565b5060e083015161157660e08601826114b7565b5061010083015161158b6101008601826114b7565b508091505092915050565b5f6020820190508181035f8301526115ae81846114c6565b905092915050565b6115bf816114ae565b81146115c9575f80fd5b50565b5f813590506115da816115b6565b92915050565b5f602082840312156115f5576115f46112fd565b5b5f611602848285016115cc565b91505092915050565b61161481611305565b82525050565b5f60208201905061162d5f83018461160b565b92915050565b61163c81611391565b8114611646575f80fd5b50565b5f8135905061165781611633565b92915050565b5f60208284031215611672576116716112fd565b5b5f61167f84828501611649565b91505092915050565b5f81519050919050565b5f82825260208201905092915050565b5f819050602082019050919050565b5f6116bc8383611363565b60208301905092915050565b5f602082019050919050565b5f6116de82611688565b6116e88185611692565b93506116f3836116a2565b805f5b8381101561172357815161170a88826116b1565b9750611715836116c8565b9250506001810190506116f6565b5085935050505092915050565b5f6020820190508181035f83015261174881846116d4565b905092915050565b61175981611391565b82525050565b5f82825260208201905092915050565b5f611779826113b1565b611783818561175f565b93506117938185602086016113cb565b61179c816113f3565b840191505092915050565b6117b08161148e565b82525050565b6117bf816114ae565b82525050565b5f610120820190506117d95f83018c61160b565b6117e6602083018b611750565b81810360408301526117f8818a61176f565b9050818103606083015261180c818961176f565b90508181036080830152611820818861176f565b905061182f60a083018761160b565b61183c60c08301866117a7565b61184960e08301856117b6565b6118576101008301846117b6565b9a9950505050505050505050565b5f80fd5b5f80fd5b7f4e487b71000000000000000000000000000000000000000000000000000000005f52604160045260245ffd5b6118a3826113f3565b810181811067ffffffffffffffff821117156118c2576118c161186d565b5b80604052505050565b5f6118d46112f4565b90506118e0828261189a565b919050565b5f67ffffffffffffffff8211156118ff576118fe61186d565b5b611908826113f3565b9050602081019050919050565b828183375f83830152505050565b5f611935611930846118e5565b6118cb565b90508281526020810184848401111561195157611950611869565b5b61195c848285611915565b509392505050565b5f82601f83011261197857611977611865565b5b8135611988848260208601611923565b91505092915050565b5f602082840312156119a6576119a56112fd565b5b5f82013567ffffffffffffffff8111156119c3576119c2611301565b5b6119cf84828501611964565b91505092915050565b5f805f80608085870312156119f0576119ef6112fd565b5b5f85013567ffffffffffffffff811115611a0d57611a0c611301565b5b611a1987828801611964565b945050602085013567ffffffffffffffff811115611a3a57611a39611301565b5b611a4687828801611964565b935050604085013567ffffffffffffffff811115611a6757611a66611301565b5b611a7387828801611964565b925050606085013567ffffffffffffffff811115611a9457611a93611301565b5b611aa087828801611964565b91505092959194509250565b5f602082019050611abf5f830184611750565b92915050565b5f602082019050611ad85f8301846117b6565b92915050565b5f8060408385031215611af457611af36112fd565b5b5f611b0185828601611324565b9250506020611b12858286016115cc565b9150509250929050565b5f8115159050919050565b611b3081611b1c565b82525050565b5f602082019050611b495f830184611b27565b92915050565b60048110611b5b575f80fd5b50565b5f81359050611b6c81611b4f565b92915050565b5f8060408385031215611b8857611b876112fd565b5b5f611b9585828601611324565b9250506020611ba685828601611b5e565b9150509250929050565b7f4e487b71000000000000000000000000000000000000000000000000000000005f52602260045260245ffd5b5f6002820490506001821680611bf457607f821691505b602082108103611c0757611c06611bb0565b5b50919050565b7f4e487b71000000000000000000000000000000000000000000000000000000005f52603260045260245ffd5b7f4e487b71000000000000000000000000000000000000000000000000000000005f52601160045260245ffd5b5f611c71826114ae565b91507fffffffffffffffffffffffffffffffffffffffffffffffffffffffffffffffff8203611ca357611ca2611c3a565b5b600182019050919050565b5f81905092915050565b5f611cc2826113b1565b611ccc8185611cae565b9350611cdc8185602086016113cb565b80840191505092915050565b5f611cf38284611cb8565b915081905092915050565b5f6020820190508181035f830152611d16818461176f565b905092915050565b5f8160601b9050919050565b5f611d3482611d1e565b9050919050565b5f611d4582611d2a565b9050919050565b611d5d611d5882611391565b611d3b565b82525050565b5f819050919050565b611d7d611d78826114ae565b611d63565b82525050565b5f611d8e8287611d4c565b601482019150611d9e8286611cb8565b9150611daa8285611d6c565b602082019150611dba8284611d6c565b60208201915081905095945050505050565b5f819050815f5260205f209050919050565b5f6020601f8301049050919050565b5f82821b905092915050565b5f60088302611e287fffffffffffffffffffffffffffffffffffffffffffffffffffffffffffffffff82611ded565b611e328683611ded565b95508019841693508086168417925050509392505050565b5f819050919050565b5f611e6d611e68611e63846114ae565b611e4a565b6114ae565b9050919050565b5f819050919050565b611e8683611e53565b611e9a611e9282611e74565b848454611df9565b825550505050565b5f90565b611eae611ea2565b611eb9818484611e7d565b505050565b5b81811015611edc57611ed15f82611ea6565b600181019050611ebf565b5050565b601f821115611f2157611ef281611dcc565b611efb84611dde565b81016020851015611f0a578190505b611f1e611f1685611dde565b830182611ebe565b50505b505050565b5f82821c905092915050565b5f611f415f1984600802611f26565b1980831691505092915050565b5f611f598383611f32565b9150826002028217905092915050565b611f72826113b1565b67ffffffffffffffff811115611f8b57611f8a61186d565b5b611f958254611bdd565b611fa0828285611ee0565b5f60209050601f831160018114611fd1575f8415611fbf578287015190505b611fc98582611f4e565b865550612030565b601f198416611fdf86611dcc565b5f5b8281101561200657848901518255600182019150602085019450602081019050611fe1565b86831015612023578489015161201f601f891682611f32565b8355505b6001600288020188555050505b505050505050565b5f6080820190508181035f830152612050818761176f565b90508181036020830152612064818661176f565b90508181036040830152612078818561176f565b905061208760608301846117b6565b95945050505050565b5f6040820190506120a35f8301856117b6565b6120b060208301846117b6565b9392505050565b5f6040820190506120ca5f8301856117a7565b6120d760208301846117a7565b939250505056fea2646970667358221220dcdeb608abae7a43908ce139c6f935114c579b962e76f88e1b736faf8a7b716164736f6c63430008140033","linkReferences":{}},"methodIdentifiers":{"allProtocolIds(uint256)":"2592d90c","getAllProtocolIds()":"dae9327f","getProtocol(bytes32)":"0eca8af8","getProtocolCount()":"938b79bc","getProtocolIdByGithubUrl(string)":"605d87c5","getProtocolsByOwner(address)":"52157751","isGithubUrlRegistered(string)":"b392d972","owner()":"8da5cb5b","protocols(bytes32)":"5515fe0a","registerProtocol(string,string,string,string)":"709055bb","renounceOwnership()":"715018a6","transferOwnership(address)":"f2fde38b","updateBountyPool(bytes32,uint256)":"ab425009","updateProtocolStatus(bytes32,uint8)":"b59c8637"},"id":32}