{"abi":[{"type":"constructor","inputs":[],"stateMutability":"nonpayable"},{"type":"function","name":"DEFAULT_ADMIN_ROLE","inputs":[],"outputs":[{"name":"","type":"bytes32","internalType":"bytes32"}],"stateMutability":"view"},{"type":"function","name":"VALIDATOR_ROLE","inputs":[],"outputs":[{"name":"","type":"bytes32","internalType":"bytes32"}],"stateMutability":"view"},{"type":"function","name":"addValidator","inputs":[{"name":"validator","type":"address","internalType":"address"}],"outputs":[],"stateMutability":"nonpayable"},{"type":"function","name":"allValidationIds","inputs":[{"name":"","type":"uint256","internalType":"uint256"}],"outputs":[{"name":"","type":"bytes32","internalType":"bytes32"}],"stateMutability":"view"},{"type":"function","name":"getAllValidationIds","inputs":[],"outputs":[{"name":"","type":"bytes32[]","internalType":"bytes32[]"}],"stateMutability":"view"},{"type":"function","name":"getConfirmedValidations","inputs":[{"name":"protocolId","type":"bytes32","internalType":"bytes32"}],"outputs":[{"name":"","type":"tuple[]","internalType":"struct ValidationRegistry.ValidationResult[]","components":[{"name":"validationId","type":"bytes32","internalType":"bytes32"},{"name":"protocolId","type":"bytes32","internalType":"bytes32"},{"name":"findingId","type":"bytes32","internalType":"bytes32"},{"name":"validatorAgent","type":"address","internalType":"address"},{"name":"outcome","type":"uint8","internalType":"enum ValidationRegistry.ValidationOutcome"},{"name":"severity","type":"uint8","internalType":"enum ValidationRegistry.Severity"},{"name":"vulnerabilityType","type":"string","internalType":"string"},{"name":"executionLog","type":"string","internalType":"string"},{"name":"proofHash","type":"bytes32","internalType":"bytes32"},{"name":"timestamp","type":"uint256","internalType":"uint256"},{"name":"exists","type":"bool","internalType":"bool"}]}],"stateMutability":"view"},{"type":"function","name":"getProtocolValidationCount","inputs":[{"name":"protocolId","type":"bytes32","internalType":"bytes32"}],"outputs":[{"name":"","type":"uint256","internalType":"uint256"}],"stateMutability":"view"},{"type":"function","name":"getProtocolValidations","inputs":[{"name":"protocolId","type":"bytes32","internalType":"bytes32"}],"outputs":[{"name":"","type":"tuple[]","internalType":"struct ValidationRegistry.ValidationResult[]","components":[{"name":"validationId","type":"bytes32","internalType":"bytes32"},{"name":"protocolId","type":"bytes32","internalType":"bytes32"},{"name":"findingId","type":"bytes32","internalType":"bytes32"},{"name":"validatorAgent","type":"address","internalType":"address"},{"name":"outcome","type":"uint8","internalType":"enum ValidationRegistry.ValidationOutcome"},{"name":"severity","type":"uint8","internalType":"enum ValidationRegistry.Severity"},{"name":"vulnerabilityType","type":"string","internalType":"string"},{"name":"executionLog","type":"string","internalType":"string"},{"name":"proofHash","type":"bytes32","internalType":"bytes32"},{"name":"timestamp","type":"uint256","internalType":"uint256"},{"name":"exists","type":"bool","internalType":"bool"}]}],"stateMutability":"view"},{"type":"function","name":"getRoleAdmin","inputs":[{"name":"role","type":"bytes32","internalType":"bytes32"}],"outputs":[{"name":"","type":"bytes32","internalType":"bytes32"}],"stateMutability":"view"},{"type":"function","name":"getTotalValidationCount","inputs":[],"outputs":[{"name":"","type":"uint256","internalType":"uint256"}],"stateMutability":"view"},{"type":"function","name":"getValidation","inputs":[{"name":"validationId","type":"bytes32","internalType":"bytes32"}],"outputs":[{"name":"","type":"tuple","internalType":"struct ValidationRegistry.ValidationResult","components":[{"name":"validationId","type":"bytes32","internalType":"bytes32"},{"name":"protocolId","type":"bytes32","internalType":"bytes32"},{"name":"findingId","type":"bytes32","internalType":"bytes32"},{"name":"validatorAgent","type":"address","internalType":"address"},{"name":"outcome","type":"uint8","internalType":"enum ValidationRegistry.ValidationOutcome"},{"name":"severity","type":"uint8","internalType":"enum ValidationRegistry.Severity"},{"name":"vulnerabilityType","type":"string","internalType":"string"},{"name":"executionLog","type":"string","internalType":"string"},{"name":"proofHash","type":"bytes32","internalType":"bytes32"},{"name":"timestamp","type":"uint256","internalType":"uint256"},{"name":"exists","type":"bool","internalType":"bool"}]}],"stateMutability":"nonpayable"},{"type":"function","name":"getValidationByFinding","inputs":[{"name":"findingId","type":"bytes32","internalType":"bytes32"}],"outputs":[{"name":"","type":"tuple","internalType":"struct ValidationRegistry.ValidationResult","components":[{"name":"validationId","type":"bytes32","internalType":"bytes32"},{"name":"protocolId","type":"bytes32","internalType":"bytes32"},{"name":"findingId","type":"bytes32","internalType":"bytes32"},{"name":"validatorAgent","type":"address","internalType":"address"},{"name":"outcome","type":"uint8","internalType":"enum ValidationRegistry.ValidationOutcome"},{"name":"severity","type":"uint8","internalType":"enum ValidationRegistry.Severity"},{"name":"vulnerabilityType","type":"string","internalType":"string"},{"name":"executionLog","type":"string","internalType":"string"},{"name":"proofHash","type":"bytes32","internalType":"bytes32"},{"name":"timestamp","type":"uint256","internalType":"uint256"},{"name":"exists","type":"bool","internalType":"bool"}]}],"stateMutability":"view"},{"type":"function","name":"getValidationsBySeverity","inputs":[{"name":"protocolId","type":"bytes32","internalType":"bytes32"},{"name":"severity","type":"uint8","internalType":"enum ValidationRegistry.Severity"}],"outputs":[{"name":"","type":"tuple[]","internalType":"struct ValidationRegistry.ValidationResult[]","components":[{"name":"validationId","type":"bytes32","internalType":"bytes32"},{"name":"protocolId","type":"bytes32","internalType":"bytes32"},{"name":"findingId","type":"bytes32","internalType":"bytes32"},{"name":"validatorAgent","type":"address","internalType":"address"},{"name":"outcome","type":"uint8","internalType":"enum ValidationRegistry.ValidationOutcome"},{"name":"severity","type":"uint8","internalType":"enum ValidationRegistry.Severity"},{"name":"vulnerabilityType","type":"string","internalType":"string"},{"name":"executionLog","type":"string","internalType":"string"},{"name":"proofHash","type":"bytes32","internalType":"bytes32"},{"name":"timestamp","type":"uint256","internalType":"uint256"},{"name":"exists","type":"bool","internalType":"bool"}]}],"stateMutability":"view"},{"type":"function","name":"grantRole","inputs":[{"name":"role","type":"bytes32","internalType":"bytes32"},{"name":"account","type":"address","internalType":"address"}],"outputs":[],"stateMutability":"nonpayable"},{"type":"function","name":"hasRole","inputs":[{"name":"role","type":"bytes32","internalType":"bytes32"},{"name":"account","type":"address","internalType":"address"}],"outputs":[{"name":"","type":"bool","internalType":"bool"}],"stateMutability":"view"},{"type":"function","name":"isFindingValidated","inputs":[{"name":"findingId","type":"bytes32","internalType":"bytes32"}],"outputs":[{"name":"","type":"bool","internalType":"bool"}],"stateMutability":"view"},{"type":"function","name":"isValidator","inputs":[{"name":"account","type":"address","internalType":"address"}],"outputs":[{"name":"","type":"bool","internalType":"bool"}],"stateMutability":"view"},{"type":"function","name":"recordValidation","inputs":[{"name":"protocolId","type":"bytes32","internalType":"bytes32"},{"name":"findingId","type":"bytes32","internalType":"bytes32"},{"name":"vulnerabilityType","type":"string","internalType":"string"},{"name":"severity","type":"uint8","internalType":"enum ValidationRegistry.Severity"},{"name":"outcome","type":"uint8","internalType":"enum ValidationRegistry.ValidationOutcome"},{"name":"executionLog","type":"string","internalType":"string"},{"name":"proofHash","type":"bytes32","internalType":"bytes32"}],"outputs":[{"name":"validationId","type":"bytes32","internalType":"bytes32"}],"stateMutability":"nonpayable"},{"type":"function","name":"removeValidator","inputs":[{"name":"validator","type":"address","internalType":"address"}],"outputs":[],"stateMutability":"nonpayable"},{"type":"function","name":"renounceRole","inputs":[{"name":"role","type":"bytes32","internalType":"bytes32"},{"name":"callerConfirmation","type":"address","internalType":"address"}],"outputs":[],"stateMutability":"nonpayable"},{"type":"function","name":"revokeRole","inputs":[{"name":"role","type":"bytes32","internalType":"bytes32"},{"name":"account","type":"address","internalType":"address"}],"outputs":[],"stateMutability":"nonpayable"},{"type":"function","name":"supportsInterface","inputs":[{"name":"interfaceId","type":"bytes4","internalType":"bytes4"}],"outputs":[{"name":"","type":"bool","internalType":"bool"}],"stateMutability":"view"},{"type":"function","name":"validations","inputs":[{"name":"","type":"bytes32","internalType":"bytes32"}],"outputs":[{"name":"validationId","type":"bytes32","internalType":"bytes32"},{"name":"protocolId","type":"bytes32","internalType":"bytes32"},{"name":"findingId","type":"bytes32","internalType":"bytes32"},{"name":"validatorAgent","type":"address","internalType":"address"},{"name":"outcome","type":"uint8","internalType":"enum ValidationRegistry.ValidationOutcome"},{"name":"severity","type":"uint8","internalType":"enum ValidationRegistry.Severity"},{"name":"vulnerabilityType","type":"string","internalType":"string"},{"name":"executionLog","type":"string","internalType":"string"},{"name":"proofHash","type":"bytes32","internalType":"bytes32"},{"name":"timestamp","type":"uint256","internalType":"uint256"},{"name":"exists","type":"bool","internalType":"bool"}],"stateMutability":"view"},{"type":"event","name":"RoleAdminChanged","inputs":[{"name":"role","type":"bytes32","indexed":true,"internalType":"bytes32"},{"name":"previousAdminRole","type":"bytes32","indexed":true,"internalType":"bytes32"},{"name":"newAdminRole","type":"bytes32","indexed":true,"internalType":"bytes32"}],"anonymous":false},{"type":"event","name":"RoleGranted","inputs":[{"name":"role","type":"bytes32","indexed":true,"internalType":"bytes32"},{"name":"account","type":"address","indexed":true,"internalType":"address"},{"name":"sender","type":"address","indexed":true,"internalType":"address"}],"anonymous":false},{"type":"event","name":"RoleRevoked","inputs":[{"name":"role","type":"bytes32","indexed":true,"internalType":"bytes32"},{"name":"account","type":"address","indexed":true,"internalType":"address"},{"name":"sender","type":"address","indexed":true,"internalType":"address"}],"anonymous":false},{"type":"event","name":"ValidationQueried","inputs":[{"name":"validationId","type":"bytes32","indexed":true,"internalType":"bytes32"},{"name":"querier","type":"address","indexed":true,"internalType":"address"}],"anonymous":false},{"type":"event","name":"ValidationRecorded","inputs":[{"name":"validationId","type":"bytes32","indexed":true,"internalType":"bytes32"},{"name":"protocolId","type":"bytes32","indexed":true,"internalType":"bytes32"},{"name":"findingId","type":"bytes32","indexed":true,"internalType":"bytes32"},{"name":"validatorAgent","type":"address","indexed":false,"internalType":"address"},{"name":"outcome","type":"uint8","indexed":false,"internalType":"enum ValidationRegistry.ValidationOutcome"},{"name":"severity","type":"uint8","indexed":false,"internalType":"enum ValidationRegistry.Severity"},{"name":"timestamp","type":"uint256","indexed":false,"internalType":"uint256"}],"anonymous":false},{"type":"error","name":"AccessControlBadConfirmation","inputs":[]},{"type":"error","name":"AccessControlUnauthorizedAccount","inputs":[{"name":"account","type":"address","internalType":"address"},{"name":"neededRole","type":"bytes32","internalType":"bytes32"}]},{"type":"error","name":"InvalidFindingId","inputs":[]},{"type":"error","name":"InvalidProtocolId","inputs":[]},{"type":"error","name":"UnauthorizedValidator","inputs":[]},{"type":"error","name":"ValidationAlreadyExists","inputs":[{"name":"findingId","type":"bytes32","internalType":"bytes32"}]},{"type":"error","name":"ValidationNotFound","inputs":[{"name":"validationId","type":"bytes32","internalType":"bytes32"}]}],"bytecode":{"object":"0x608060405234801562000010575f80fd5b50620000255f801b336200005f60201b60201c565b50620000587f21702c8af46127c7fa207f89d0b0a8441bb32959a0ac7df790e9ab1a25c98926336200005f60201b60201c565b50620001c4565b5f6200007283836200015a60201b60201c565b620001505760015f808581526020019081526020015f205f015f8473ffffffffffffffffffffffffffffffffffffffff1673ffffffffffffffffffffffffffffffffffffffff1681526020019081526020015f205f6101000a81548160ff021916908315150217905550620000ec620001bd60201b60201c565b73ffffffffffffffffffffffffffffffffffffffff168273ffffffffffffffffffffffffffffffffffffffff16847f2f8788117e7eff1d82e926ec794901d17c78024a50270940304540a733656f0d60405160405180910390a46001905062000154565b5f90505b92915050565b5f805f8481526020019081526020015f205f015f8373ffffffffffffffffffffffffffffffffffffffff1673ffffffffffffffffffffffffffffffffffffffff1681526020019081526020015f205f9054906101000a900460ff16905092915050565b5f33905090565b61335d80620001d25f395ff3fe608060405234801561000f575f80fd5b506004361061014b575f3560e01c8063a217fddf116100c1578063c6664efc1161007a578063c6664efc146103f9578063d547741f14610429578063da93452414610445578063e28c380214610475578063e44733bb146104af578063facd743b146104cd5761014b565b8063a217fddf146102fd578063a4fbc9c61461031b578063a8091fc31461034b578063ba41f60d1461037b578063bdff5561146103ab578063c49baebe146103db5761014b565b806340a141ff1161011357806340a141ff146102175780634d238c8e14610233578063807f85141461024f57806391d148541461026d57806396bbc9711461029d578063a1b2e022146102cd5761014b565b806301ffc9a71461014f578063102e00751461017f578063248a9ca3146101af5780632f2ff15d146101df57806336568abe146101fb575b5f80fd5b6101696004803603810190610164919061236a565b6104fd565b60405161017691906123af565b60405180910390f35b6101996004803603810190610194919061257d565b610576565b6040516101a69190612661565b60405180910390f35b6101c960048036038101906101c4919061267a565b61093b565b6040516101d69190612661565b60405180910390f35b6101f960048036038101906101f491906126ff565b610957565b005b610215600480360381019061021091906126ff565b610979565b005b610231600480360381019061022c919061273d565b6109f4565b005b61024d6004803603810190610248919061273d565b610a2e565b005b610257610a68565b604051610264919061281f565b60405180910390f35b610287600480360381019061028291906126ff565b610abe565b60405161029491906123af565b60405180910390f35b6102b760048036038101906102b29190612872565b610b21565b6040516102c49190612661565b60405180910390f35b6102e760048036038101906102e2919061289d565b610b41565b6040516102f49190612be9565b60405180910390f35b610305610fbd565b6040516103129190612661565b60405180910390f35b6103356004803603810190610330919061267a565b610fc3565b60405161034291906123af565b60405180910390f35b6103656004803603810190610360919061267a565b610fe2565b6040516103729190612cfc565b60405180910390f35b6103956004803603810190610390919061267a565b6112d4565b6040516103a29190612be9565b60405180910390f35b6103c560048036038101906103c0919061267a565b61174f565b6040516103d29190612d2b565b60405180910390f35b6103e361176c565b6040516103f09190612661565b60405180910390f35b610413600480360381019061040e919061267a565b611790565b6040516104209190612cfc565b60405180910390f35b610443600480360381019061043e91906126ff565b611a4e565b005b61045f600480360381019061045a919061267a565b611a70565b60405161046c9190612be9565b60405180910390f35b61048f600480360381019061048a919061267a565b611ddf565b6040516104a69b9a99989796959493929190612db9565b60405180910390f35b6104b7611f86565b6040516104c49190612d2b565b60405180910390f35b6104e760048036038101906104e2919061273d565b611f92565b6040516104f491906123af565b60405180910390f35b5f7f7965db0b000000000000000000000000000000000000000000000000000000007bffffffffffffffffffffffffffffffffffffffffffffffffffffffff1916827bffffffffffffffffffffffffffffffffffffffffffffffffffffffff1916148061056f575061056e82611fc4565b5b9050919050565b5f7f21702c8af46127c7fa207f89d0b0a8441bb32959a0ac7df790e9ab1a25c989266105a18161202d565b5f801b89036105dc576040517fabcf87b200000000000000000000000000000000000000000000000000000000815260040160405180910390fd5b5f801b8803610617576040517fe05dc18700000000000000000000000000000000000000000000000000000000815260040160405180910390fd5b5f801b60045f8a81526020019081526020015f20541461066e57876040517f3c9982950000000000000000000000000000000000000000000000000000000081526004016106659190612661565b60405180910390fd5b60015f81548092919061068090612e9d565b9190505550888833426001546040516020016106a0959493929190612f69565b6040516020818303038152906040528051906020012091505f6040518061016001604052808481526020018b81526020018a81526020013373ffffffffffffffffffffffffffffffffffffffff16815260200187600281111561070657610705612913565b5b815260200188600481111561071e5761071d612913565b5b81526020018981526020018681526020018581526020014281526020016001151581525090508060025f8581526020019081526020015f205f820151815f015560208201518160010155604082015181600201556060820151816003015f6101000a81548173ffffffffffffffffffffffffffffffffffffffff021916908373ffffffffffffffffffffffffffffffffffffffff16021790555060808201518160030160146101000a81548160ff021916908360028111156107e3576107e2612913565b5b021790555060a08201518160030160156101000a81548160ff0219169083600481111561081357610812612913565b5b021790555060c082015181600401908161082d91906131c1565b5060e082015181600501908161084391906131c1565b5061010082015181600601556101208201518160070155610140820151816008015f6101000a81548160ff02191690831515021790555090505060035f8b81526020019081526020015f2083908060018154018082558091505060019003905f5260205f20015f90919091909150558260045f8b81526020019081526020015f2081905550600583908060018154018082558091505060019003905f5260205f20015f9091909190915055888a847fff35d510c98f99604d61e3be30c6c66cc9114469bd89076893b9793b0e017970338a8c426040516109269493929190613290565b60405180910390a45050979650505050505050565b5f805f8381526020019081526020015f20600101549050919050565b6109608261093b565b6109698161202d565b6109738383612041565b50505050565b61098161212a565b73ffffffffffffffffffffffffffffffffffffffff168173ffffffffffffffffffffffffffffffffffffffff16146109e5576040517f6697b23200000000000000000000000000000000000000000000000000000000815260040160405180910390fd5b6109ef8282612131565b505050565b5f801b610a008161202d565b610a2a7f21702c8af46127c7fa207f89d0b0a8441bb32959a0ac7df790e9ab1a25c9892683611a4e565b5050565b5f801b610a3a8161202d565b610a647f21702c8af46127c7fa207f89d0b0a8441bb32959a0ac7df790e9ab1a25c9892683610957565b5050565b60606005805480602002602001604051908101604052809291908181526020018280548015610ab457602002820191905f5260205f20905b815481526020019060010190808311610aa0575b5050505050905090565b5f805f8481526020019081526020015f205f015f8373ffffffffffffffffffffffffffffffffffffffff1673ffffffffffffffffffffffffffffffffffffffff1681526020019081526020015f205f9054906101000a900460ff16905092915050565b60058181548110610b30575f80fd5b905f5260205f20015f915090505481565b60605f60035f8581526020019081526020015f20805480602002602001604051908101604052809291908181526020018280548015610b9d57602002820191905f5260205f20905b815481526020019060010190808311610b89575b505050505090505f805b8251811015610c3857846004811115610bc357610bc2612913565b5b60025f858481518110610bd957610bd86132d3565b5b602002602001015181526020019081526020015f2060030160159054906101000a900460ff166004811115610c1157610c10612913565b5b03610c25578180610c2190612e9d565b9250505b8080610c3090612e9d565b915050610ba7565b505f8167ffffffffffffffff811115610c5457610c53612413565b5b604051908082528060200260200182016040528015610c8d57816020015b610c7a61226b565b815260200190600190039081610c725790505b5090505f805b8451811015610faf57866004811115610caf57610cae612913565b5b60025f878481518110610cc557610cc46132d3565b5b602002602001015181526020019081526020015f2060030160159054906101000a900460ff166004811115610cfd57610cfc612913565b5b03610f9c5760025f868381518110610d1857610d176132d3565b5b602002602001015181526020019081526020015f20604051806101600160405290815f82015481526020016001820154815260200160028201548152602001600382015f9054906101000a900473ffffffffffffffffffffffffffffffffffffffff1673ffffffffffffffffffffffffffffffffffffffff1673ffffffffffffffffffffffffffffffffffffffff1681526020016003820160149054906101000a900460ff166002811115610dd057610dcf612913565b5b6002811115610de257610de1612913565b5b81526020016003820160159054906101000a900460ff166004811115610e0b57610e0a612913565b5b6004811115610e1d57610e1c612913565b5b8152602001600482018054610e3190612ff4565b80601f0160208091040260200160405190810160405280929190818152602001828054610e5d90612ff4565b8015610ea85780601f10610e7f57610100808354040283529160200191610ea8565b820191905f5260205f20905b815481529060010190602001808311610e8b57829003601f168201915b50505050508152602001600582018054610ec190612ff4565b80601f0160208091040260200160405190810160405280929190818152602001828054610eed90612ff4565b8015610f385780601f10610f0f57610100808354040283529160200191610f38565b820191905f5260205f20905b815481529060010190602001808311610f1b57829003601f168201915b505050505081526020016006820154815260200160078201548152602001600882015f9054906101000a900460ff161515151581525050838381518110610f8257610f816132d3565b5b60200260200101819052508180610f9890612e9d565b9250505b8080610fa790612e9d565b915050610c93565b508194505050505092915050565b5f801b81565b5f805f1b60045f8481526020019081526020015f205414159050919050565b610fea61226b565b5f60025f8481526020019081526020015f20604051806101600160405290815f82015481526020016001820154815260200160028201548152602001600382015f9054906101000a900473ffffffffffffffffffffffffffffffffffffffff1673ffffffffffffffffffffffffffffffffffffffff1673ffffffffffffffffffffffffffffffffffffffff1681526020016003820160149054906101000a900460ff16600281111561109f5761109e612913565b5b60028111156110b1576110b0612913565b5b81526020016003820160159054906101000a900460ff1660048111156110da576110d9612913565b5b60048111156110ec576110eb612913565b5b815260200160048201805461110090612ff4565b80601f016020809104026020016040519081016040528092919081815260200182805461112c90612ff4565b80156111775780601f1061114e57610100808354040283529160200191611177565b820191905f5260205f20905b81548152906001019060200180831161115a57829003601f168201915b5050505050815260200160058201805461119090612ff4565b80601f01602080910402602001604051908101604052809291908181526020018280546111bc90612ff4565b80156112075780601f106111de57610100808354040283529160200191611207565b820191905f5260205f20905b8154815290600101906020018083116111ea57829003601f168201915b505050505081526020016006820154815260200160078201548152602001600882015f9054906101000a900460ff161515151581525050905080610140015161128757826040517f982fdefc00000000000000000000000000000000000000000000000000000000815260040161127e9190612661565b60405180910390fd5b3373ffffffffffffffffffffffffffffffffffffffff16837f6da92ea87f14dc2f5ac956fcd2c2637528633ef6015df8bce2a9bbbdde4e89de60405160405180910390a380915050919050565b60605f60035f8481526020019081526020015f2080548060200260200160405190810160405280929190818152602001828054801561133057602002820191905f5260205f20905b81548152602001906001019080831161131c575b505050505090505f805b82518110156113cb575f600281111561135657611355612913565b5b60025f85848151811061136c5761136b6132d3565b5b602002602001015181526020019081526020015f2060030160149054906101000a900460ff1660028111156113a4576113a3612913565b5b036113b85781806113b490612e9d565b9250505b80806113c390612e9d565b91505061133a565b505f8167ffffffffffffffff8111156113e7576113e6612413565b5b60405190808252806020026020018201604052801561142057816020015b61140d61226b565b8152602001906001900390816114055790505b5090505f805b8451811015611742575f600281111561144257611441612913565b5b60025f878481518110611458576114576132d3565b5b602002602001015181526020019081526020015f2060030160149054906101000a900460ff1660028111156114905761148f612913565b5b0361172f5760025f8683815181106114ab576114aa6132d3565b5b602002602001015181526020019081526020015f20604051806101600160405290815f82015481526020016001820154815260200160028201548152602001600382015f9054906101000a900473ffffffffffffffffffffffffffffffffffffffff1673ffffffffffffffffffffffffffffffffffffffff1673ffffffffffffffffffffffffffffffffffffffff1681526020016003820160149054906101000a900460ff16600281111561156357611562612913565b5b600281111561157557611574612913565b5b81526020016003820160159054906101000a900460ff16600481111561159e5761159d612913565b5b60048111156115b0576115af612913565b5b81526020016004820180546115c490612ff4565b80601f01602080910402602001604051908101604052809291908181526020018280546115f090612ff4565b801561163b5780601f106116125761010080835404028352916020019161163b565b820191905f5260205f20905b81548152906001019060200180831161161e57829003601f168201915b5050505050815260200160058201805461165490612ff4565b80601f016020809104026020016040519081016040528092919081815260200182805461168090612ff4565b80156116cb5780601f106116a2576101008083540402835291602001916116cb565b820191905f5260205f20905b8154815290600101906020018083116116ae57829003601f168201915b505050505081526020016006820154815260200160078201548152602001600882015f9054906101000a900460ff161515151581525050838381518110611715576117146132d3565b5b6020026020010181905250818061172b90612e9d565b9250505b808061173a90612e9d565b915050611426565b5081945050505050919050565b5f60035f8381526020019081526020015f20805490509050919050565b7f21702c8af46127c7fa207f89d0b0a8441bb32959a0ac7df790e9ab1a25c9892681565b61179861226b565b5f60045f8481526020019081526020015f205490505f801b81036117f357806040517f982fdefc0000000000000000000000000000000000000000000000000000000081526004016117ea9190612661565b60405180910390fd5b60025f8281526020019081526020015f20604051806101600160405290815f82015481526020016001820154815260200160028201548152602001600382015f9054906101000a900473ffffffffffffffffffffffffffffffffffffffff1673ffffffffffffffffffffffffffffffffffffffff1673ffffffffffffffffffffffffffffffffffffffff1681526020016003820160149054906101000a900460ff1660028111156118a7576118a6612913565b5b60028111156118b9576118b8612913565b5b81526020016003820160159054906101000a900460ff1660048111156118e2576118e1612913565b5b60048111156118f4576118f3612913565b5b815260200160048201805461190890612ff4565b80601f016020809104026020016040519081016040528092919081815260200182805461193490612ff4565b801561197f5780601f106119565761010080835404028352916020019161197f565b820191905f5260205f20905b81548152906001019060200180831161196257829003601f168201915b5050505050815260200160058201805461199890612ff4565b80601f01602080910402602001604051908101604052809291908181526020018280546119c490612ff4565b8015611a0f5780601f106119e657610100808354040283529160200191611a0f565b820191905f5260205f20905b8154815290600101906020018083116119f257829003601f168201915b505050505081526020016006820154815260200160078201548152602001600882015f9054906101000a900460ff161515151581525050915050919050565b611a578261093b565b611a608161202d565b611a6a8383612131565b50505050565b60605f60035f8481526020019081526020015f20805480602002602001604051908101604052809291908181526020018280548015611acc57602002820191905f5260205f20905b815481526020019060010190808311611ab8575b505050505090505f815167ffffffffffffffff811115611aef57611aee612413565b5b604051908082528060200260200182016040528015611b2857816020015b611b1561226b565b815260200190600190039081611b0d5790505b5090505f5b8251811015611dd45760025f848381518110611b4c57611b4b6132d3565b5b602002602001015181526020019081526020015f20604051806101600160405290815f82015481526020016001820154815260200160028201548152602001600382015f9054906101000a900473ffffffffffffffffffffffffffffffffffffffff1673ffffffffffffffffffffffffffffffffffffffff1673ffffffffffffffffffffffffffffffffffffffff1681526020016003820160149054906101000a900460ff166002811115611c0457611c03612913565b5b6002811115611c1657611c15612913565b5b81526020016003820160159054906101000a900460ff166004811115611c3f57611c3e612913565b5b6004811115611c5157611c50612913565b5b8152602001600482018054611c6590612ff4565b80601f0160208091040260200160405190810160405280929190818152602001828054611c9190612ff4565b8015611cdc5780601f10611cb357610100808354040283529160200191611cdc565b820191905f5260205f20905b815481529060010190602001808311611cbf57829003601f168201915b50505050508152602001600582018054611cf590612ff4565b80601f0160208091040260200160405190810160405280929190818152602001828054611d2190612ff4565b8015611d6c5780601f10611d4357610100808354040283529160200191611d6c565b820191905f5260205f20905b815481529060010190602001808311611d4f57829003601f168201915b505050505081526020016006820154815260200160078201548152602001600882015f9054906101000a900460ff161515151581525050828281518110611db657611db56132d3565b5b60200260200101819052508080611dcc90612e9d565b915050611b2d565b508092505050919050565b6002602052805f5260405f205f91509050805f015490806001015490806002015490806003015f9054906101000a900473ffffffffffffffffffffffffffffffffffffffff16908060030160149054906101000a900460ff16908060030160159054906101000a900460ff1690806004018054611e5b90612ff4565b80601f0160208091040260200160405190810160405280929190818152602001828054611e8790612ff4565b8015611ed25780601f10611ea957610100808354040283529160200191611ed2565b820191905f5260205f20905b815481529060010190602001808311611eb557829003601f168201915b505050505090806005018054611ee790612ff4565b80601f0160208091040260200160405190810160405280929190818152602001828054611f1390612ff4565b8015611f5e5780601f10611f3557610100808354040283529160200191611f5e565b820191905f5260205f20905b815481529060010190602001808311611f4157829003601f168201915b505050505090806006015490806007015490806008015f9054906101000a900460ff1690508b565b5f600580549050905090565b5f611fbd7f21702c8af46127c7fa207f89d0b0a8441bb32959a0ac7df790e9ab1a25c9892683610abe565b9050919050565b5f7f01ffc9a7000000000000000000000000000000000000000000000000000000007bffffffffffffffffffffffffffffffffffffffffffffffffffffffff1916827bffffffffffffffffffffffffffffffffffffffffffffffffffffffff1916149050919050565b61203e8161203961212a565b61221a565b50565b5f61204c8383610abe565b6121205760015f808581526020019081526020015f205f015f8473ffffffffffffffffffffffffffffffffffffffff1673ffffffffffffffffffffffffffffffffffffffff1681526020019081526020015f205f6101000a81548160ff0219169083151502179055506120bd61212a565b73ffffffffffffffffffffffffffffffffffffffff168273ffffffffffffffffffffffffffffffffffffffff16847f2f8788117e7eff1d82e926ec794901d17c78024a50270940304540a733656f0d60405160405180910390a460019050612124565b5f90505b92915050565b5f33905090565b5f61213c8383610abe565b15612210575f805f8581526020019081526020015f205f015f8473ffffffffffffffffffffffffffffffffffffffff1673ffffffffffffffffffffffffffffffffffffffff1681526020019081526020015f205f6101000a81548160ff0219169083151502179055506121ad61212a565b73ffffffffffffffffffffffffffffffffffffffff168273ffffffffffffffffffffffffffffffffffffffff16847ff6391f5c32d9c69d2a47ea670b442974b53935d1edc7fd64eb21e047a839171b60405160405180910390a460019050612214565b5f90505b92915050565b6122248282610abe565b6122675780826040517fe2517d3f00000000000000000000000000000000000000000000000000000000815260040161225e929190613300565b60405180910390fd5b5050565b6040518061016001604052805f80191681526020015f80191681526020015f80191681526020015f73ffffffffffffffffffffffffffffffffffffffff1681526020015f60028111156122c1576122c0612913565b5b81526020015f60048111156122d9576122d8612913565b5b815260200160608152602001606081526020015f80191681526020015f81526020015f151581525090565b5f604051905090565b5f80fd5b5f80fd5b5f7fffffffff0000000000000000000000000000000000000000000000000000000082169050919050565b61234981612315565b8114612353575f80fd5b50565b5f8135905061236481612340565b92915050565b5f6020828403121561237f5761237e61230d565b5b5f61238c84828501612356565b91505092915050565b5f8115159050919050565b6123a981612395565b82525050565b5f6020820190506123c25f8301846123a0565b92915050565b5f819050919050565b6123da816123c8565b81146123e4575f80fd5b50565b5f813590506123f5816123d1565b92915050565b5f80fd5b5f80fd5b5f601f19601f8301169050919050565b7f4e487b71000000000000000000000000000000000000000000000000000000005f52604160045260245ffd5b61244982612403565b810181811067ffffffffffffffff8211171561246857612467612413565b5b80604052505050565b5f61247a612304565b90506124868282612440565b919050565b5f67ffffffffffffffff8211156124a5576124a4612413565b5b6124ae82612403565b9050602081019050919050565b828183375f83830152505050565b5f6124db6124d68461248b565b612471565b9050828152602081018484840111156124f7576124f66123ff565b5b6125028482856124bb565b509392505050565b5f82601f83011261251e5761251d6123fb565b5b813561252e8482602086016124c9565b91505092915050565b60058110612543575f80fd5b50565b5f8135905061255481612537565b92915050565b60038110612566575f80fd5b50565b5f813590506125778161255a565b92915050565b5f805f805f805f60e0888a0312156125985761259761230d565b5b5f6125a58a828b016123e7565b97505060206125b68a828b016123e7565b965050604088013567ffffffffffffffff8111156125d7576125d6612311565b5b6125e38a828b0161250a565b95505060606125f48a828b01612546565b94505060806126058a828b01612569565b93505060a088013567ffffffffffffffff81111561262657612625612311565b5b6126328a828b0161250a565b92505060c06126438a828b016123e7565b91505092959891949750929550565b61265b816123c8565b82525050565b5f6020820190506126745f830184612652565b92915050565b5f6020828403121561268f5761268e61230d565b5b5f61269c848285016123e7565b91505092915050565b5f73ffffffffffffffffffffffffffffffffffffffff82169050919050565b5f6126ce826126a5565b9050919050565b6126de816126c4565b81146126e8575f80fd5b50565b5f813590506126f9816126d5565b92915050565b5f80604083850312156127155761271461230d565b5b5f612722858286016123e7565b9250506020612733858286016126eb565b9150509250929050565b5f602082840312156127525761275161230d565b5b5f61275f848285016126eb565b91505092915050565b5f81519050919050565b5f82825260208201905092915050565b5f819050602082019050919050565b61279a816123c8565b82525050565b5f6127ab8383612791565b60208301905092915050565b5f602082019050919050565b5f6127cd82612768565b6127d78185612772565b93506127e283612782565b805f5b838110156128125781516127f988826127a0565b9750612804836127b7565b9250506001810190506127e5565b5085935050505092915050565b5f6020820190508181035f83015261283781846127c3565b905092915050565b5f819050919050565b6128518161283f565b811461285b575f80fd5b50565b5f8135905061286c81612848565b92915050565b5f602082840312156128875761288661230d565b5b5f6128948482850161285e565b91505092915050565b5f80604083850312156128b3576128b261230d565b5b5f6128c0858286016123e7565b92505060206128d185828601612546565b9150509250929050565b5f81519050919050565b5f82825260208201905092915050565b5f819050602082019050919050565b61290d816126c4565b82525050565b7f4e487b71000000000000000000000000000000000000000000000000000000005f52602160045260245ffd5b6003811061295157612950612913565b5b50565b5f81905061296182612940565b919050565b5f61297082612954565b9050919050565b61298081612966565b82525050565b6005811061299757612996612913565b5b50565b5f8190506129a782612986565b919050565b5f6129b68261299a565b9050919050565b6129c6816129ac565b82525050565b5f81519050919050565b5f82825260208201905092915050565b5f5b83811015612a035780820151818401526020810190506129e8565b5f8484015250505050565b5f612a18826129cc565b612a2281856129d6565b9350612a328185602086016129e6565b612a3b81612403565b840191505092915050565b612a4f8161283f565b82525050565b612a5e81612395565b82525050565b5f61016083015f830151612a7a5f860182612791565b506020830151612a8d6020860182612791565b506040830151612aa06040860182612791565b506060830151612ab36060860182612904565b506080830151612ac66080860182612977565b5060a0830151612ad960a08601826129bd565b5060c083015184820360c0860152612af18282612a0e565b91505060e083015184820360e0860152612b0b8282612a0e565b915050610100830151612b22610100860182612791565b50610120830151612b37610120860182612a46565b50610140830151612b4c610140860182612a55565b508091505092915050565b5f612b628383612a64565b905092915050565b5f602082019050919050565b5f612b80826128db565b612b8a81856128e5565b935083602082028501612b9c856128f5565b805f5b85811015612bd75784840389528151612bb88582612b57565b9450612bc383612b6a565b925060208a01995050600181019050612b9f565b50829750879550505050505092915050565b5f6020820190508181035f830152612c018184612b76565b905092915050565b5f61016083015f830151612c1f5f860182612791565b506020830151612c326020860182612791565b506040830151612c456040860182612791565b506060830151612c586060860182612904565b506080830151612c6b6080860182612977565b5060a0830151612c7e60a08601826129bd565b5060c083015184820360c0860152612c968282612a0e565b91505060e083015184820360e0860152612cb08282612a0e565b915050610100830151612cc7610100860182612791565b50610120830151612cdc610120860182612a46565b50610140830151612cf1610140860182612a55565b508091505092915050565b5f6020820190508181035f830152612d148184612c09565b905092915050565b612d258161283f565b82525050565b5f602082019050612d3e5f830184612d1c565b92915050565b612d4d816126c4565b82525050565b612d5c81612966565b82525050565b612d6b816129ac565b82525050565b5f82825260208201905092915050565b5f612d8b826129cc565b612d958185612d71565b9350612da58185602086016129e6565b612dae81612403565b840191505092915050565b5f61016082019050612dcd5f83018e612652565b612dda602083018d612652565b612de7604083018c612652565b612df4606083018b612d44565b612e01608083018a612d53565b612e0e60a0830189612d62565b81810360c0830152612e208188612d81565b905081810360e0830152612e348187612d81565b9050612e44610100830186612652565b612e52610120830185612d1c565b612e606101408301846123a0565b9c9b505050505050505050505050565b7f4e487b71000000000000000000000000000000000000000000000000000000005f52601160045260245ffd5b5f612ea78261283f565b91507fffffffffffffffffffffffffffffffffffffffffffffffffffffffffffffffff8203612ed957612ed8612e70565b5b600182019050919050565b5f819050919050565b612efe612ef9826123c8565b612ee4565b82525050565b5f8160601b9050919050565b5f612f1a82612f04565b9050919050565b5f612f2b82612f10565b9050919050565b612f43612f3e826126c4565b612f21565b82525050565b5f819050919050565b612f63612f5e8261283f565b612f49565b82525050565b5f612f748288612eed565b602082019150612f848287612eed565b602082019150612f948286612f32565b601482019150612fa48285612f52565b602082019150612fb48284612f52565b6020820191508190509695505050505050565b7f4e487b71000000000000000000000000000000000000000000000000000000005f52602260045260245ffd5b5f600282049050600182168061300b57607f821691505b60208210810361301e5761301d612fc7565b5b50919050565b5f819050815f5260205f209050919050565b5f6020601f8301049050919050565b5f82821b905092915050565b5f600883026130807fffffffffffffffffffffffffffffffffffffffffffffffffffffffffffffffff82613045565b61308a8683613045565b95508019841693508086168417925050509392505050565b5f819050919050565b5f6130c56130c06130bb8461283f565b6130a2565b61283f565b9050919050565b5f819050919050565b6130de836130ab565b6130f26130ea826130cc565b848454613051565b825550505050565b5f90565b6131066130fa565b6131118184846130d5565b505050565b5b81811015613134576131295f826130fe565b600181019050613117565b5050565b601f8211156131795761314a81613024565b61315384613036565b81016020851015613162578190505b61317661316e85613036565b830182613116565b50505b505050565b5f82821c905092915050565b5f6131995f198460080261317e565b1980831691505092915050565b5f6131b1838361318a565b9150826002028217905092915050565b6131ca826129cc565b67ffffffffffffffff8111156131e3576131e2612413565b5b6131ed8254612ff4565b6131f8828285613138565b5f60209050601f831160018114613229575f8415613217578287015190505b61322185826131a6565b865550613288565b601f19841661323786613024565b5f5b8281101561325e57848901518255600182019150602085019450602081019050613239565b8683101561327b5784890151613277601f89168261318a565b8355505b6001600288020188555050505b505050505050565b5f6080820190506132a35f830187612d44565b6132b06020830186612d53565b6132bd6040830185612d62565b6132ca6060830184612d1c565b95945050505050565b7f4e487b71000000000000000000000000000000000000000000000000000000005f52603260045260245ffd5b5f6040820190506133135f830185612d44565b6133206020830184612652565b939250505056fea2646970667358221220ba7cee2c531b0ceeef3071d6de8ea6fd4602ab0707a039b3426f4049027fc79264736f6c63430008140033","linkReferences":{}},"methodIdentifiers":{"DEFAULT_ADMIN_ROLE()":"a217fddf","VALIDATOR_ROLE()":"c49baebe","addValidator(address)":"4d238c8e","allValidationIds(uint256)":"96bbc971","getAllValidationIds()":"807f8514","getConfirmedValidations(bytes32)":"ba41f60d","getProtocolValidationCount(bytes32)":"bdff5561","getProtocolValidations(bytes32)":"da934524","getRoleAdmin(bytes32)":"248a9ca3","getTotalValidationCount()":"e44733bb","getValidation(bytes32)":"a8091fc3","getValidationByFinding(bytes32)":"c6664efc","getValidationsBySeverity(bytes32,uint8)":"a1b2e022","grantRole(bytes32,address)":"2f2ff15d","hasRole(bytes32,address)":"91d14854","isFindingValidated(bytes32)":"a4fbc9c6","isValidator(address)":"facd743b","recordValidation(bytes32,bytes32,string,uint8,uint8,string,bytes32)":"102e0075","removeValidator(address)":"40a141ff","renounceRole(bytes32,address)":"36568abe","revokeRole(bytes32,address)":"d547741f","supportsInterface(bytes4)":"01ffc9a7","validations(bytes32)":"e28c3802"},"id":33}